{
  "_format": "hh-sol-artifact-1",
  "contractName": "DevDaoDomain",
  "sourceName": "contracts/DevDaoDomain.sol",
  "abi": [
    {
      "inputs": [],
      "stateMutability": "nonpayable",
      "type": "constructor"
    },
    {
      "inputs": [
        {
          "internalType": "uint256",
          "name": "minLength",
          "type": "uint256"
        }
      ],
      "name": "DomainNameTooShort",
      "type": "error"
    },
    {
      "inputs": [
        {
          "internalType": "uint256",
          "name": "tokenId",
          "type": "uint256"
        }
      ],
      "name": "NonExistentToken",
      "type": "error"
    },
    {
      "inputs": [],
      "name": "NotTokenOwner",
      "type": "error"
    },
    {
      "anonymous": false,
      "inputs": [
        {
          "indexed": true,
          "internalType": "address",
          "name": "owner",
          "type": "address"
        },
        {
          "indexed": true,
          "internalType": "address",
          "name": "approved",
          "type": "address"
        },
        {
          "indexed": true,
          "internalType": "uint256",
          "name": "tokenId",
          "type": "uint256"
        }
      ],
      "name": "Approval",
      "type": "event"
    },
    {
      "anonymous": false,
      "inputs": [
        {
          "indexed": true,
          "internalType": "address",
          "name": "owner",
          "type": "address"
        },
        {
          "indexed": true,
          "internalType": "address",
          "name": "operator",
          "type": "address"
        },
        {
          "indexed": false,
          "internalType": "bool",
          "name": "approved",
          "type": "bool"
        }
      ],
      "name": "ApprovalForAll",
      "type": "event"
    },
    {
      "anonymous": false,
      "inputs": [
        {
          "indexed": true,
          "internalType": "address",
          "name": "from",
          "type": "address"
        },
        {
          "indexed": true,
          "internalType": "address",
          "name": "to",
          "type": "address"
        },
        {
          "indexed": true,
          "internalType": "uint256",
          "name": "tokenId",
          "type": "uint256"
        }
      ],
      "name": "Transfer",
      "type": "event"
    },
    {
      "inputs": [
        {
          "internalType": "address",
          "name": "to",
          "type": "address"
        },
        {
          "internalType": "uint256",
          "name": "tokenId",
          "type": "uint256"
        }
      ],
      "name": "approve",
      "outputs": [],
      "stateMutability": "nonpayable",
      "type": "function"
    },
    {
      "inputs": [
        {
          "internalType": "address",
          "name": "owner",
          "type": "address"
        }
      ],
      "name": "balanceOf",
      "outputs": [
        {
          "internalType": "uint256",
          "name": "",
          "type": "uint256"
        }
      ],
      "stateMutability": "view",
      "type": "function"
    },
    {
      "inputs": [
        {
          "internalType": "uint256",
          "name": "tokenId",
          "type": "uint256"
        }
      ],
      "name": "burn",
      "outputs": [],
      "stateMutability": "nonpayable",
      "type": "function"
    },
    {
      "inputs": [
        {
          "internalType": "uint256",
          "name": "tokenId",
          "type": "uint256"
        }
      ],
      "name": "getApproved",
      "outputs": [
        {
          "internalType": "address",
          "name": "",
          "type": "address"
        }
      ],
      "stateMutability": "view",
      "type": "function"
    },
    {
      "inputs": [
        {
          "internalType": "string",
          "name": "_domain",
          "type": "string"
        }
      ],
      "name": "getInfo",
      "outputs": [
        {
          "components": [
            {
              "internalType": "bool",
              "name": "showAddress",
              "type": "bool"
            },
            {
              "internalType": "bool",
              "name": "showUrl",
              "type": "bool"
            },
            {
              "internalType": "bool",
              "name": "showTwitter",
              "type": "bool"
            },
            {
              "internalType": "bool",
              "name": "showDiscord",
              "type": "bool"
            },
            {
              "internalType": "bool",
              "name": "showGithub",
              "type": "bool"
            },
            {
              "internalType": "bool",
              "name": "showD4R",
              "type": "bool"
            },
            {
              "internalType": "address",
              "name": "addr",
              "type": "address"
            },
            {
              "internalType": "string",
              "name": "domain",
              "type": "string"
            },
            {
              "internalType": "string",
              "name": "url",
              "type": "string"
            },
            {
              "internalType": "string",
              "name": "twitter",
              "type": "string"
            },
            {
              "internalType": "string",
              "name": "discord",
              "type": "string"
            },
            {
              "internalType": "string",
              "name": "github",
              "type": "string"
            }
          ],
          "internalType": "struct DDDInfo",
          "name": "info",
          "type": "tuple"
        }
      ],
      "stateMutability": "view",
      "type": "function"
    },
    {
      "inputs": [
        {
          "internalType": "address",
          "name": "owner",
          "type": "address"
        },
        {
          "internalType": "address",
          "name": "operator",
          "type": "address"
        }
      ],
      "name": "isApprovedForAll",
      "outputs": [
        {
          "internalType": "bool",
          "name": "",
          "type": "bool"
        }
      ],
      "stateMutability": "view",
      "type": "function"
    },
    {
      "inputs": [
        {
          "internalType": "string",
          "name": "_domain",
          "type": "string"
        }
      ],
      "name": "mint",
      "outputs": [
        {
          "internalType": "uint256",
          "name": "tokenId",
          "type": "uint256"
        }
      ],
      "stateMutability": "nonpayable",
      "type": "function"
    },
    {
      "inputs": [
        {
          "components": [
            {
              "internalType": "bool",
              "name": "showAddress",
              "type": "bool"
            },
            {
              "internalType": "bool",
              "name": "showUrl",
              "type": "bool"
            },
            {
              "internalType": "bool",
              "name": "showTwitter",
              "type": "bool"
            },
            {
              "internalType": "bool",
              "name": "showDiscord",
              "type": "bool"
            },
            {
              "internalType": "bool",
              "name": "showGithub",
              "type": "bool"
            },
            {
              "internalType": "bool",
              "name": "showD4R",
              "type": "bool"
            },
            {
              "internalType": "address",
              "name": "addr",
              "type": "address"
            },
            {
              "internalType": "string",
              "name": "domain",
              "type": "string"
            },
            {
              "internalType": "string",
              "name": "url",
              "type": "string"
            },
            {
              "internalType": "string",
              "name": "twitter",
              "type": "string"
            },
            {
              "internalType": "string",
              "name": "discord",
              "type": "string"
            },
            {
              "internalType": "string",
              "name": "github",
              "type": "string"
            }
          ],
          "internalType": "struct DDDInfo",
          "name": "_data",
          "type": "tuple"
        }
      ],
      "name": "mintWithInfo",
      "outputs": [],
      "stateMutability": "nonpayable",
      "type": "function"
    },
    {
      "inputs": [],
      "name": "name",
      "outputs": [
        {
          "internalType": "string",
          "name": "",
          "type": "string"
        }
      ],
      "stateMutability": "view",
      "type": "function"
    },
    {
      "inputs": [
        {
          "internalType": "uint256",
          "name": "tokenId",
          "type": "uint256"
        }
      ],
      "name": "ownerOf",
      "outputs": [
        {
          "internalType": "address",
          "name": "",
          "type": "address"
        }
      ],
      "stateMutability": "view",
      "type": "function"
    },
    {
      "inputs": [
        {
          "internalType": "address",
          "name": "from",
          "type": "address"
        },
        {
          "internalType": "address",
          "name": "to",
          "type": "address"
        },
        {
          "internalType": "uint256",
          "name": "tokenId",
          "type": "uint256"
        }
      ],
      "name": "safeTransferFrom",
      "outputs": [],
      "stateMutability": "nonpayable",
      "type": "function"
    },
    {
      "inputs": [
        {
          "internalType": "address",
          "name": "from",
          "type": "address"
        },
        {
          "internalType": "address",
          "name": "to",
          "type": "address"
        },
        {
          "internalType": "uint256",
          "name": "tokenId",
          "type": "uint256"
        },
        {
          "internalType": "bytes",
          "name": "_data",
          "type": "bytes"
        }
      ],
      "name": "safeTransferFrom",
      "outputs": [],
      "stateMutability": "nonpayable",
      "type": "function"
    },
    {
      "inputs": [
        {
          "internalType": "uint256",
          "name": "_tokenId",
          "type": "uint256"
        },
        {
          "internalType": "bool",
          "name": "_showAddress",
          "type": "bool"
        },
        {
          "internalType": "address",
          "name": "_address",
          "type": "address"
        }
      ],
      "name": "setAddress",
      "outputs": [],
      "stateMutability": "nonpayable",
      "type": "function"
    },
    {
      "inputs": [
        {
          "internalType": "address",
          "name": "operator",
          "type": "address"
        },
        {
          "internalType": "bool",
          "name": "approved",
          "type": "bool"
        }
      ],
      "name": "setApprovalForAll",
      "outputs": [],
      "stateMutability": "nonpayable",
      "type": "function"
    },
    {
      "inputs": [
        {
          "internalType": "uint256",
          "name": "_tokenId",
          "type": "uint256"
        },
        {
          "internalType": "bool",
          "name": "_showDiscord",
          "type": "bool"
        },
        {
          "internalType": "string",
          "name": "_discord",
          "type": "string"
        }
      ],
      "name": "setDiscord",
      "outputs": [],
      "stateMutability": "nonpayable",
      "type": "function"
    },
    {
      "inputs": [
        {
          "internalType": "uint256",
          "name": "_tokenId",
          "type": "uint256"
        },
        {
          "internalType": "bool",
          "name": "_showGithub",
          "type": "bool"
        },
        {
          "internalType": "string",
          "name": "_github",
          "type": "string"
        }
      ],
      "name": "setGithub",
      "outputs": [],
      "stateMutability": "nonpayable",
      "type": "function"
    },
    {
      "inputs": [
        {
          "internalType": "uint256",
          "name": "_tokenId",
          "type": "uint256"
        },
        {
          "components": [
            {
              "internalType": "bool",
              "name": "showAddress",
              "type": "bool"
            },
            {
              "internalType": "bool",
              "name": "showUrl",
              "type": "bool"
            },
            {
              "internalType": "bool",
              "name": "showTwitter",
              "type": "bool"
            },
            {
              "internalType": "bool",
              "name": "showDiscord",
              "type": "bool"
            },
            {
              "internalType": "bool",
              "name": "showGithub",
              "type": "bool"
            },
            {
              "internalType": "bool",
              "name": "showD4R",
              "type": "bool"
            },
            {
              "internalType": "address",
              "name": "addr",
              "type": "address"
            },
            {
              "internalType": "string",
              "name": "domain",
              "type": "string"
            },
            {
              "internalType": "string",
              "name": "url",
              "type": "string"
            },
            {
              "internalType": "string",
              "name": "twitter",
              "type": "string"
            },
            {
              "internalType": "string",
              "name": "discord",
              "type": "string"
            },
            {
              "internalType": "string",
              "name": "github",
              "type": "string"
            }
          ],
          "internalType": "struct DDDInfo",
          "name": "_data",
          "type": "tuple"
        }
      ],
      "name": "setInfo",
      "outputs": [],
      "stateMutability": "nonpayable",
      "type": "function"
    },
    {
      "inputs": [
        {
          "internalType": "uint256",
          "name": "_tokenId",
          "type": "uint256"
        },
        {
          "internalType": "bool",
          "name": "_showTwitter",
          "type": "bool"
        },
        {
          "internalType": "string",
          "name": "_twitter",
          "type": "string"
        }
      ],
      "name": "setTwitter",
      "outputs": [],
      "stateMutability": "nonpayable",
      "type": "function"
    },
    {
      "inputs": [
        {
          "internalType": "uint256",
          "name": "_tokenId",
          "type": "uint256"
        },
        {
          "internalType": "bool",
          "name": "_showUrl",
          "type": "bool"
        },
        {
          "internalType": "string",
          "name": "_url",
          "type": "string"
        }
      ],
      "name": "setUrl",
      "outputs": [],
      "stateMutability": "nonpayable",
      "type": "function"
    },
    {
      "inputs": [
        {
          "internalType": "bytes4",
          "name": "interfaceId",
          "type": "bytes4"
        }
      ],
      "name": "supportsInterface",
      "outputs": [
        {
          "internalType": "bool",
          "name": "",
          "type": "bool"
        }
      ],
      "stateMutability": "view",
      "type": "function"
    },
    {
      "inputs": [],
      "name": "symbol",
      "outputs": [
        {
          "internalType": "string",
          "name": "",
          "type": "string"
        }
      ],
      "stateMutability": "view",
      "type": "function"
    },
    {
      "inputs": [
        {
          "internalType": "uint256",
          "name": "_tokenId",
          "type": "uint256"
        }
      ],
      "name": "tokenURI",
      "outputs": [
        {
          "internalType": "string",
          "name": "",
          "type": "string"
        }
      ],
      "stateMutability": "view",
      "type": "function"
    },
    {
      "inputs": [
        {
          "internalType": "address",
          "name": "from",
          "type": "address"
        },
        {
          "internalType": "address",
          "name": "to",
          "type": "address"
        },
        {
          "internalType": "uint256",
          "name": "tokenId",
          "type": "uint256"
        }
      ],
      "name": "transferFrom",
      "outputs": [],
      "stateMutability": "nonpayable",
      "type": "function"
    }
  ],
  "bytecode": "0x60806040523480156200001157600080fd5b50604080518082018252600381526211111160ea1b60208083019182528351808501909452600e84526d44657644616f20446f6d61696e7360901b908401528151919291620000639160009162000082565b5080516200007990600190602084019062000082565b50505062000165565b828054620000909062000128565b90600052602060002090601f016020900481019282620000b45760008555620000ff565b82601f10620000cf57805160ff1916838001178555620000ff565b82800160010185558215620000ff579182015b82811115620000ff578251825591602001919060010190620000e2565b506200010d92915062000111565b5090565b5b808211156200010d576000815560010162000112565b600181811c908216806200013d57607f821691505b602082108114156200015f57634e487b7160e01b600052602260045260246000fd5b50919050565b61471180620001756000396000f3fe608060405234801561001057600080fd5b506004361061014d5760003560e01c8063661ccedb116100c3578063b703bb651161007c578063b703bb65146102d6578063b88d4fde146102e9578063c87b56dd146102fc578063cd8060f21461030f578063d85d3d2714610322578063e985e9c51461033557600080fd5b8063661ccedb1461025457806370a08231146102675780637ee005ab1461028857806395d89b41146102a857806396e67029146102b0578063a22cb465146102c357600080fd5b806323b872dd1161011557806323b872dd146101e257806325ba60e0146101f5578063419cc8cd1461020857806342842e0e1461021b57806342966c681461022e5780636352211e1461024157600080fd5b806301ffc9a71461015257806306fdde031461017a578063081812fc1461018f578063095ea7b3146101ba5780631757bdbb146101cf575b600080fd5b610165610160366004612659565b610371565b60405190151581526020015b60405180910390f35b6101826103c3565b60405161017191906126ce565b6101a261019d3660046126e1565b610455565b6040516001600160a01b039091168152602001610171565b6101cd6101c8366004612716565b6104ef565b005b6101cd6101dd366004612984565b610605565b6101cd6101f03660046129b9565b610624565b6101cd6102033660046129f5565b610656565b6101cd610216366004612a3c565b6107fa565b6101cd6102293660046129b9565b61085f565b6101cd61023c3660046126e1565b61087a565b6101a261024f3660046126e1565b6108f4565b6101cd610262366004612ac3565b61096b565b61027a610275366004612aff565b6109ee565b604051908152602001610171565b61029b610296366004612b1a565b610a75565b6040516101719190612b4f565b610182610e5b565b6101cd6102be366004612a3c565b610e6a565b6101cd6102d1366004612c68565b610ecc565b6101cd6102e4366004612a3c565b610ed7565b6101cd6102f7366004612c9b565b610f37565b61018261030a3660046126e1565b610f6f565b6101cd61031d366004612a3c565b611328565b61027a610330366004612b1a565b61138c565b610165610343366004612d17565b6001600160a01b03918216600090815260056020908152604080832093909416825291909152205460ff1690565b60006001600160e01b031982166380ac58cd60e01b14806103a257506001600160e01b03198216635b5e139f60e01b145b806103bd57506301ffc9a760e01b6001600160e01b03198316145b92915050565b6060600080546103d290612d41565b80601f01602080910402602001604051908101604052809291908181526020018280546103fe90612d41565b801561044b5780601f106104205761010080835404028352916020019161044b565b820191906000526020600020905b81548152906001019060200180831161042e57829003601f168201915b5050505050905090565b6000818152600260205260408120546001600160a01b03166104d35760405162461bcd60e51b815260206004820152602c60248201527f4552433732313a20617070726f76656420717565727920666f72206e6f6e657860448201526b34b9ba32b73a103a37b5b2b760a11b60648201526084015b60405180910390fd5b506000908152600460205260409020546001600160a01b031690565b60006104fa826108f4565b9050806001600160a01b0316836001600160a01b031614156105685760405162461bcd60e51b815260206004820152602160248201527f4552433732313a20617070726f76616c20746f2063757272656e74206f776e656044820152603960f91b60648201526084016104ca565b336001600160a01b038216148061058457506105848133610343565b6105f65760405162461bcd60e51b815260206004820152603860248201527f4552433732313a20617070726f76652063616c6c6572206973206e6f74206f7760448201527f6e6572206e6f7220617070726f76656420666f7220616c6c000000000000000060648201526084016104ca565b61060083836113f1565b505050565b60006106148260e0015161138c565b90506106208183610656565b5050565b61062f335b8261145f565b61064b5760405162461bcd60e51b81526004016104ca90612d76565b610600838383611556565b33610660836108f4565b6001600160a01b031614610687576040516359dc379f60e01b815260040160405180910390fd5b8051600083815260066020908152604091829020805482860151938601516060870151608088015160a089015160c08a015161ffff1990951698151561ff0019169890981761010097151588021763ffff00001916620100009315159390930263ff0000001916929092176301000000911515919091021765ffff0000000019166401000000009115159190910265ff00000000001916176501000000000095151595909502949094176601000000000000600160d01b031916600160301b6001600160a01b039095169490940293909317835590830151805161077393600201929190910190612500565b50610120810151600083815260066020908152604090912082516107a09360039092019290910190612500565b50610140810151600083815260066020908152604090912082516107cd9360049092019290910190612500565b50610160810151600083815260066020908152604090912082516106009360059092019290910190612500565b33610804856108f4565b6001600160a01b03161461082b576040516359dc379f60e01b815260040160405180910390fd5b6000848152600660205260409020805461ff00191661010085151502178155610858906002018383612584565b5050505050565b61060083838360405180602001604052806000815250610f37565b61088333610629565b6108e85760405162461bcd60e51b815260206004820152603060248201527f4552433732314275726e61626c653a2063616c6c6572206973206e6f74206f7760448201526f1b995c881b9bdc88185c1c1c9bdd995960821b60648201526084016104ca565b6108f1816116f2565b50565b6000818152600260205260408120546001600160a01b0316806103bd5760405162461bcd60e51b815260206004820152602960248201527f4552433732313a206f776e657220717565727920666f72206e6f6e657869737460448201526832b73a103a37b5b2b760b91b60648201526084016104ca565b33610975846108f4565b6001600160a01b03161461099c576040516359dc379f60e01b815260040160405180910390fd5b60009283526006602052604090922080546001600160a01b03909316600160301b026601000000000000600160d01b03199215159290921665ffffffffff01600160d01b031990931692909217179055565b60006001600160a01b038216610a595760405162461bcd60e51b815260206004820152602a60248201527f4552433732313a2062616c616e636520717565727920666f7220746865207a65604482015269726f206164647265737360b01b60648201526084016104ca565b506001600160a01b031660009081526003602052604090205490565b604080516101808101825260008082526020820181905291810182905260608082018390526080820183905260a0820183905260c082019290925260e081018290526101008101829052610120810182905261014081018290526101608101919091528151602080840191909120600081815260068352604090819020815161018081018352815460ff80821615158352610100820481161515968301969096526201000081048616151593820193909352630100000083048516151560608201526401000000008304851615156080820152650100000000008304909416151560a0850152600160301b9091046001600160a01b031660c084015260018101805492939260e084019190610b8990612d41565b80601f0160208091040260200160405190810160405280929190818152602001828054610bb590612d41565b8015610c025780601f10610bd757610100808354040283529160200191610c02565b820191906000526020600020905b815481529060010190602001808311610be557829003601f168201915b50505050508152602001600282018054610c1b90612d41565b80601f0160208091040260200160405190810160405280929190818152602001828054610c4790612d41565b8015610c945780601f10610c6957610100808354040283529160200191610c94565b820191906000526020600020905b815481529060010190602001808311610c7757829003601f168201915b50505050508152602001600382018054610cad90612d41565b80601f0160208091040260200160405190810160405280929190818152602001828054610cd990612d41565b8015610d265780601f10610cfb57610100808354040283529160200191610d26565b820191906000526020600020905b815481529060010190602001808311610d0957829003601f168201915b50505050508152602001600482018054610d3f90612d41565b80601f0160208091040260200160405190810160405280929190818152602001828054610d6b90612d41565b8015610db85780601f10610d8d57610100808354040283529160200191610db8565b820191906000526020600020905b815481529060010190602001808311610d9b57829003601f168201915b50505050508152602001600582018054610dd190612d41565b80601f0160208091040260200160405190810160405280929190818152602001828054610dfd90612d41565b8015610e4a5780601f10610e1f57610100808354040283529160200191610e4a565b820191906000526020600020905b815481529060010190602001808311610e2d57829003601f168201915b505050505081525050915050919050565b6060600180546103d290612d41565b33610e74856108f4565b6001600160a01b031614610e9b576040516359dc379f60e01b815260040160405180910390fd5b6000848152600660205260409020805463ff0000001916630100000085151502178155610858906004018383612584565b61062033838361175d565b33610ee1856108f4565b6001600160a01b031614610f08576040516359dc379f60e01b815260040160405180910390fd5b6000848152600660205260409020805462ff000019166201000085151502178155610858906003018383612584565b610f41338361145f565b610f5d5760405162461bcd60e51b81526004016104ca90612d76565b610f698484848461182c565b50505050565b6000818152600260205260409020546060906001600160a01b0316610faa576040516338077a2b60e01b8152600481018390526024016104ca565b600082815260066020908152604091829020825161018081018452815460ff80821615158352610100820481161515948301949094526201000081048416151594820194909452630100000084048316151560608201526401000000008404831615156080820152650100000000008404909216151560a0830152600160301b9092046001600160a01b031660c08201526001820180546103bd93869392909160e08401919061105990612d41565b80601f016020809104026020016040519081016040528092919081815260200182805461108590612d41565b80156110d25780601f106110a7576101008083540402835291602001916110d2565b820191906000526020600020905b8154815290600101906020018083116110b557829003601f168201915b505050505081526020016002820180546110eb90612d41565b80601f016020809104026020016040519081016040528092919081815260200182805461111790612d41565b80156111645780601f1061113957610100808354040283529160200191611164565b820191906000526020600020905b81548152906001019060200180831161114757829003601f168201915b5050505050815260200160038201805461117d90612d41565b80601f01602080910402602001604051908101604052809291908181526020018280546111a990612d41565b80156111f65780601f106111cb576101008083540402835291602001916111f6565b820191906000526020600020905b8154815290600101906020018083116111d957829003601f168201915b5050505050815260200160048201805461120f90612d41565b80601f016020809104026020016040519081016040528092919081815260200182805461123b90612d41565b80156112885780601f1061125d57610100808354040283529160200191611288565b820191906000526020600020905b81548152906001019060200180831161126b57829003601f168201915b505050505081526020016005820180546112a190612d41565b80601f01602080910402602001604051908101604052809291908181526020018280546112cd90612d41565b801561131a5780601f106112ef5761010080835404028352916020019161131a565b820191906000526020600020905b8154815290600101906020018083116112fd57829003601f168201915b50505050508152505061185f565b33611332856108f4565b6001600160a01b031614611359576040516359dc379f60e01b815260040160405180910390fd5b6000848152600660205260409020805464ff00000000191664010000000085151502178155610858906005018383612584565b60006003825110156113b45760405163292a4c5760e11b8152600360048201526024016104ca565b50805160208201206113c63382611a55565b600081815260066020908152604090912083516113eb92600190920191850190612500565b50919050565b600081815260046020526040902080546001600160a01b0319166001600160a01b0384169081179091558190611426826108f4565b6001600160a01b03167f8c5be1e5ebec7d5bd14f71427d1e84f3dd0314c0f7b2291e5b200ac8c7c3b92560405160405180910390a45050565b6000818152600260205260408120546001600160a01b03166114d85760405162461bcd60e51b815260206004820152602c60248201527f4552433732313a206f70657261746f7220717565727920666f72206e6f6e657860448201526b34b9ba32b73a103a37b5b2b760a11b60648201526084016104ca565b60006114e3836108f4565b9050806001600160a01b0316846001600160a01b0316148061151e5750836001600160a01b031661151384610455565b6001600160a01b0316145b8061154e57506001600160a01b0380821660009081526005602090815260408083209388168352929052205460ff165b949350505050565b826001600160a01b0316611569826108f4565b6001600160a01b0316146115cd5760405162461bcd60e51b815260206004820152602560248201527f4552433732313a207472616e736665722066726f6d20696e636f72726563742060448201526437bbb732b960d91b60648201526084016104ca565b6001600160a01b03821661162f5760405162461bcd60e51b8152602060048201526024808201527f4552433732313a207472616e7366657220746f20746865207a65726f206164646044820152637265737360e01b60648201526084016104ca565b61163a6000826113f1565b6001600160a01b0383166000908152600360205260408120805460019290611663908490612ddd565b90915550506001600160a01b0382166000908152600360205260408120805460019290611691908490612df4565b909155505060008181526002602052604080822080546001600160a01b0319166001600160a01b0386811691821790925591518493918716917fddf252ad1be2c89b69c2b068fc378daa952ba7f163c4a11628f55a4df523b3ef91a4505050565b6116fb81611a6f565b600081815260066020526040812080546001600160d01b03191681559061172560018301826125f8565b6117336002830160006125f8565b6117416003830160006125f8565b61174f6004830160006125f8565b6106006005830160006125f8565b816001600160a01b0316836001600160a01b031614156117bf5760405162461bcd60e51b815260206004820152601960248201527f4552433732313a20617070726f766520746f2063616c6c65720000000000000060448201526064016104ca565b6001600160a01b03838116600081815260056020908152604080832094871680845294825291829020805460ff191686151590811790915591519182527f17307eab39ab6107e8899845ad3d59bd9653f200f220920489ca2b5937696c31910160405180910390a3505050565b611837848484611556565b61184384848484611b0a565b610f695760405162461bcd60e51b81526004016104ca90612e0c565b6060600061186c84611c08565b9050600061187984611d06565b90506060846040015180156118945750600085610120015151115b156118c1578461012001516040516020016118af9190612e7a565b60405160208183030381529060405290505b846060015180156118d85750600085610140015151115b15611906576101408501516040516118f4918391602001612eba565b60405160208183030381529060405290505b8460800151801561191d5750600085610160015151115b1561194b57610160850151604051611939918391602001612f0f565b60405160208183030381529060405290505b846020015180156119625750600085610100015151115b156119905761010085015160405161197e918391602001612f63565b60405160208183030381529060405290505b845180156119aa575060c08501516001600160a01b031615155b156119eb57806119c88660c001516001600160a01b03166014612094565b6040516020016119d9929190612fb4565b60405160208183030381529060405290505b6000611a278660e001518584611a0087612237565b604051602001611a139493929190612fee565b604051602081830303815290604052612237565b905080604051602001611a3a9190613139565b60405160208183030381529060405294505050505092915050565b61062082826040518060200160405280600081525061238b565b6000611a7a826108f4565b9050611a876000836113f1565b6001600160a01b0381166000908152600360205260408120805460019290611ab0908490612ddd565b909155505060008281526002602052604080822080546001600160a01b0319169055518391906001600160a01b038416907fddf252ad1be2c89b69c2b068fc378daa952ba7f163c4a11628f55a4df523b3ef908390a45050565b60006001600160a01b0384163b15611bfd57604051630a85bd0160e11b81526001600160a01b0385169063150b7a0290611b4e90339089908890889060040161317e565b6020604051808303816000875af1925050508015611b89575060408051601f3d908101601f19168201909252611b86918101906131b1565b60015b611be3573d808015611bb7576040519150601f19603f3d011682016040523d82523d6000602084013e611bbc565b606091505b508051611bdb5760405162461bcd60e51b81526004016104ca90612e0c565b805181602001fd5b6001600160e01b031916630a85bd0160e11b14905061154e565b506001949350505050565b606081611c2c5750506040805180820190915260018152600360fc1b602082015290565b8160005b8115611c565780611c40816131ce565b9150611c4f9050600a836131ff565b9150611c30565b60008167ffffffffffffffff811115611c7157611c71612740565b6040519080825280601f01601f191660200182016040528015611c9b576020820181803683370190505b5090505b841561154e57611cb0600183612ddd565b9150611cbd600a86613213565b611cc8906030612df4565b60f81b818381518110611cdd57611cdd613227565b60200101906001600160f81b031916908160001a905350611cff600a866131ff565b9450611c9f565b60606040518061048001604052806104508152602001613fcc610450913960e0830151604080518082018252600681526564657664616f60d01b6020808301919091528251808401845260078152661e17ba32bc3a1f60c91b818301529251611d72959493910161323d565b60408051601f1981840301815282820190915260048252633535373760e01b602083015260a084015190925015611e0657816040518061018001604052806101568152602001613e36610156913982604051806040016040528060078152602001661e17ba32bc3a1f60c91b815250604051602001611df494939291906132a4565b60405160208183030381529060405291505b826040015115611e785781604051806101c00160405280610190815260200161454c6101909139846101200151604051806040016040528060078152602001661e17ba32bc3a1f60c91b815250604051602001611e6694939291906132a4565b60405160208183030381529060405291505b826060015115611eea57816040518061072001604052806106f981526020016135ac6106f99139846101400151604051806040016040528060078152602001661e17ba32bc3a1f60c91b815250604051602001611ed894939291906132a4565b60405160208183030381529060405291505b826080015115611f5c578160405180610240016040528061020881526020016133616102089139846101600151604051806040016040528060078152602001661e17ba32bc3a1f60c91b815250604051602001611f4a94939291906132a4565b60405160208183030381529060405291505b826020015115611fc75781604051806101c001604052806101918152602001613ca5610191913984610100015160405180608001604052806043815260200161356960439139604051602001611fb594939291906132a4565b60405160208183030381529060405291505b8251156120485781604051806101600160405280610130815260200161441c61013091396120038560c001516001600160a01b03166014612094565b604051806040016040528060078152602001661e17ba32bc3a1f60c91b81525060405160200161203694939291906132a4565b60405160208183030381529060405291505b816040518060400160405280600a8152602001691e17b39f1e17b9bb339f60b11b81525060405160200161207d9291906132fb565b604051602081830303815290604052915050919050565b606060006120a383600261332a565b6120ae906002612df4565b67ffffffffffffffff8111156120c6576120c6612740565b6040519080825280601f01601f1916602001820160405280156120f0576020820181803683370190505b509050600360fc1b8160008151811061210b5761210b613227565b60200101906001600160f81b031916908160001a905350600f60fb1b8160018151811061213a5761213a613227565b60200101906001600160f81b031916908160001a905350600061215e84600261332a565b612169906001612df4565b90505b60018111156121e1576f181899199a1a9b1b9c1cb0b131b232b360811b85600f166010811061219d5761219d613227565b1a60f81b8282815181106121b3576121b3613227565b60200101906001600160f81b031916908160001a90535060049490941c936121da81613349565b905061216c565b5083156122305760405162461bcd60e51b815260206004820181905260248201527f537472696e67733a20686578206c656e67746820696e73756666696369656e7460448201526064016104ca565b9392505050565b606081516000141561225757505060408051602081019091526000815290565b6000604051806060016040528060408152602001613f8c60409139905060006003845160026122869190612df4565b61229091906131ff565b61229b90600461332a565b67ffffffffffffffff8111156122b3576122b3612740565b6040519080825280601f01601f1916602001820160405280156122dd576020820181803683370190505b509050600182016020820185865187015b80821015612349576003820191508151603f8160121c168501518453600184019350603f81600c1c168501518453600184019350603f8160061c168501518453600184019350603f81168501518453506001830192506122ee565b5050600386510660018114612365576002811461237857612380565b603d6001830353603d6002830353612380565b603d60018303535b509195945050505050565b61239583836123be565b6123a26000848484611b0a565b6106005760405162461bcd60e51b81526004016104ca90612e0c565b6001600160a01b0382166124145760405162461bcd60e51b815260206004820181905260248201527f4552433732313a206d696e7420746f20746865207a65726f206164647265737360448201526064016104ca565b6000818152600260205260409020546001600160a01b0316156124795760405162461bcd60e51b815260206004820152601c60248201527f4552433732313a20746f6b656e20616c7265616479206d696e7465640000000060448201526064016104ca565b6001600160a01b03821660009081526003602052604081208054600192906124a2908490612df4565b909155505060008181526002602052604080822080546001600160a01b0319166001600160a01b03861690811790915590518392907fddf252ad1be2c89b69c2b068fc378daa952ba7f163c4a11628f55a4df523b3ef908290a45050565b82805461250c90612d41565b90600052602060002090601f01602090048101928261252e5760008555612574565b82601f1061254757805160ff1916838001178555612574565b82800160010185558215612574579182015b82811115612574578251825591602001919060010190612559565b5061258092915061262e565b5090565b82805461259090612d41565b90600052602060002090601f0160209004810192826125b25760008555612574565b82601f106125cb5782800160ff19823516178555612574565b82800160010185558215612574579182015b828111156125745782358255916020019190600101906125dd565b50805461260490612d41565b6000825580601f10612614575050565b601f0160209004906000526020600020908101906108f191905b5b80821115612580576000815560010161262f565b6001600160e01b0319811681146108f157600080fd5b60006020828403121561266b57600080fd5b813561223081612643565b60005b83811015612691578181015183820152602001612679565b83811115610f695750506000910152565b600081518084526126ba816020860160208601612676565b601f01601f19169290920160200192915050565b60208152600061223060208301846126a2565b6000602082840312156126f357600080fd5b5035919050565b80356001600160a01b038116811461271157600080fd5b919050565b6000806040838503121561272957600080fd5b612732836126fa565b946020939093013593505050565b634e487b7160e01b600052604160045260246000fd5b604051610180810167ffffffffffffffff8111828210171561277a5761277a612740565b60405290565b8035801515811461271157600080fd5b600067ffffffffffffffff808411156127ab576127ab612740565b604051601f8501601f19908116603f011681019082821181831017156127d3576127d3612740565b816040528093508581528686860111156127ec57600080fd5b858560208301376000602087830101525050509392505050565b600082601f83011261281757600080fd5b61223083833560208501612790565b6000610180828403121561283957600080fd5b612841612756565b905061284c82612780565b815261285a60208301612780565b602082015261286b60408301612780565b604082015261287c60608301612780565b606082015261288d60808301612780565b608082015261289e60a08301612780565b60a08201526128af60c083016126fa565b60c082015260e082013567ffffffffffffffff808211156128cf57600080fd5b6128db85838601612806565b60e0840152610100915081840135818111156128f657600080fd5b61290286828701612806565b83850152506101209150818401358181111561291d57600080fd5b61292986828701612806565b83850152506101409150818401358181111561294457600080fd5b61295086828701612806565b83850152506101609150818401358181111561296b57600080fd5b61297786828701612806565b8385015250505092915050565b60006020828403121561299657600080fd5b813567ffffffffffffffff8111156129ad57600080fd5b61154e84828501612826565b6000806000606084860312156129ce57600080fd5b6129d7846126fa565b92506129e5602085016126fa565b9150604084013590509250925092565b60008060408385031215612a0857600080fd5b82359150602083013567ffffffffffffffff811115612a2657600080fd5b612a3285828601612826565b9150509250929050565b60008060008060608587031215612a5257600080fd5b84359350612a6260208601612780565b9250604085013567ffffffffffffffff80821115612a7f57600080fd5b818701915087601f830112612a9357600080fd5b813581811115612aa257600080fd5b886020828501011115612ab457600080fd5b95989497505060200194505050565b600080600060608486031215612ad857600080fd5b83359250612ae860208501612780565b9150612af6604085016126fa565b90509250925092565b600060208284031215612b1157600080fd5b612230826126fa565b600060208284031215612b2c57600080fd5b813567ffffffffffffffff811115612b4357600080fd5b61154e84828501612806565b60208152612b6260208201835115159052565b60006020830151612b77604084018215159052565b5060408301518015156060840152506060830151801515608084015250608083015180151560a08401525060a083015180151560c08401525060c08301516001600160a01b03811660e08401525060e08301516101806101008181860152612be36101a08601846126a2565b9250808601519050601f19610120818786030181880152612c0485846126a2565b945080880151925050610140818786030181880152612c2385846126a2565b945080880151925050610160818786030181880152612c4285846126a2565b908801518782039092018488015293509050612c5e83826126a2565b9695505050505050565b60008060408385031215612c7b57600080fd5b612c84836126fa565b9150612c9260208401612780565b90509250929050565b60008060008060808587031215612cb157600080fd5b612cba856126fa565b9350612cc8602086016126fa565b925060408501359150606085013567ffffffffffffffff811115612ceb57600080fd5b8501601f81018713612cfc57600080fd5b612d0b87823560208401612790565b91505092959194509250565b60008060408385031215612d2a57600080fd5b612d33836126fa565b9150612c92602084016126fa565b600181811c90821680612d5557607f821691505b602082108114156113eb57634e487b7160e01b600052602260045260246000fd5b60208082526031908201527f4552433732313a207472616e736665722063616c6c6572206973206e6f74206f6040820152701ddb995c881b9bdc88185c1c1c9bdd9959607a1b606082015260800190565b634e487b7160e01b600052601160045260246000fd5b600082821015612def57612def612dc7565b500390565b60008219821115612e0757612e07612dc7565b500190565b60208082526032908201527f4552433732313a207472616e7366657220746f206e6f6e20455243373231526560408201527131b2b4bb32b91034b6b83632b6b2b73a32b960711b606082015260800190565b60008151612e70818560208601612676565b9290920192915050565b6a113a3bb4ba3a32b9111d1160a91b81528151600090612ea181600b850160208701612676565b61088b60f21b600b939091019283015250600d01919050565b60008351612ecc818460208801612676565b6a113234b9b1b7b932111d1160a91b9083019081528351612ef481600b840160208801612676565b61088b60f21b600b9290910191820152600d01949350505050565b60008351612f21818460208801612676565b691133b4ba343ab1111d1160b11b9083019081528351612f4881600a840160208801612676565b61088b60f21b600a9290910191820152600c01949350505050565b60008351612f75818460208801612676565b66113ab936111d1160c91b9083019081528351612f99816007840160208801612676565b61088b60f21b60079290910191820152600901949350505050565b60008351612fc6818460208801612676565b6a1130b2323932b9b9911d1160a91b9083019081528351612ef481600b840160208801612676565b7f7b226e616d65223a2244657644616f446f6d61696e73222c226465736372697081527f74696f6e223a2247657420796f7572206f776e202e64657664616f20646f6d6160208201527f696e206f6e2074686520506f6c79676f6e204e6574776f726b21222c22646f6d60408201526530b4b7111d1160d11b606082015260008551613081816066850160208a01612676565b6c1116113a37b5b2b724b2111d1160991b60669184019182015285516130ae816073840160208a01612676565b680b99195d99185bc88b60ba1b6073929091019182015284516130d881607c840160208901612676565b7f22696d616765223a2022646174613a696d6167652f7376672b786d6c3b626173607c929091019182015263194d8d0b60e21b609c82015261312e61312060a0830186612e5e565b61227d60f01b815260020190565b979650505050505050565b7f646174613a6170706c69636174696f6e2f6a736f6e3b6261736536342c00000081526000825161317181601d850160208701612676565b91909101601d0192915050565b6001600160a01b0385811682528416602082015260408101839052608060608201819052600090612c5e908301846126a2565b6000602082840312156131c357600080fd5b815161223081612643565b60006000198214156131e2576131e2612dc7565b5060010190565b634e487b7160e01b600052601260045260246000fd5b60008261320e5761320e6131e9565b500490565b600082613222576132226131e9565b500690565b634e487b7160e01b600052603260045260246000fd5b6000855161324f818460208a01612676565b855190830190613263818360208a01612676565b601760f91b91019081528451613280816001840160208901612676565b8451910190613296816001840160208801612676565b016001019695505050505050565b600085516132b6818460208a01612676565b8551908301906132ca818360208a01612676565b85519101906132dd818360208901612676565b84519101906132f0818360208801612676565b019695505050505050565b6000835161330d818460208801612676565b835190830190613321818360208801612676565b01949350505050565b600081600019048311821515161561334457613344612dc7565b500290565b60008161335857613358612dc7565b50600019019056fe3c73766720783d2237302220793d223239382220786d6c6e733d22687474703a2f2f7777772e77332e6f72672f323030302f737667222077696474683d22323422206865696768743d223234222076696577426f783d22302030203234203234222066696c6c3d226e6f6e6522207374726f6b653d222366666622207374726f6b652d77696474683d223122207374726f6b652d6c696e656361703d22726f756e6422207374726f6b652d6c696e656a6f696e3d22726f756e64223e3c7061746820643d224d39203139632d3520312e352d352d322e352d372d336d31342036762d332e383761332e333720332e33372030203020302d2e39342d322e363163332e31342d2e333520362e34342d312e353420362e34342d3741352e343420352e343420302030203020323020342e373720352e303720352e30372030203020302031392e393120315331382e37332e363520313620322e34386131332e33382031332e33382030203020302d37203043362e32372e363520352e3039203120352e3039203141352e303720352e3037203020302030203520342e373761352e343420352e34342030203020302d312e3520332e3738633020352e343220332e3320362e363120362e3434203741332e333720332e333720302030203020392031382e313356323222202f3e3c2f7376673e3c7465787420783d223130302220793d22333230223e22207461726765743d225f626c616e6b223e3c7465787420783d223130302220793d22333730223e506572736f6e616c20576562736974653c2f746578743e3c2f613e3c73766720783d2236392220793d223234382220786d6c6e733d22687474703a2f2f7777772e77332e6f72672f323030302f737667222077696474683d22323622206865696768743d223234222076696577426f783d222d31302030203835203535222066696c6c3d226e6f6e6522207374726f6b653d222366666622207374726f6b652d77696474683d223322207374726f6b652d6c696e656361703d22726f756e6422207374726f6b652d6c696e656a6f696e3d22726f756e64223e3c7061746820643d224d36302e3130343520342e383937384335352e3537393220322e383231342035302e3732363520312e323931362034352e3635323720302e34313534324334352e3536303320302e33393835312034352e34363820302e3434303736392034352e3432303420302e3532353238394334342e3739363320312e363335332034342e31303520332e303833342034332e3632303920342e323231364333382e3136333720332e343034362033322e3733343520332e343034362032372e3338393220342e323231364332362e39303520332e303538312032362e3138383620312e363335332032352e3536313720302e3532353238394332352e3531343120302e3434333538392032352e3432313820302e34303133332032352e3332393420302e34313534324332302e3235383420312e323838382031352e3430353720322e383138362031302e3837373620342e383937384331302e3833383420342e393134372031302e3830343820342e393432392031302e3738323520342e3937393543312e35373739352031382e37333039202d302e3934333536312033322e3134343320302e3239333430382034352e3339313443302e3239393030352034352e3435363220302e3333353338362034352e3531383220302e3338353736312034352e3535373643362e34353836362035302e303137342031322e333431332035322e373234392031382e313134372035342e353139354331382e323037312035342e353437372031382e3330352035342e353133392031382e333633382035342e343337384331392e373239352035322e353732382032302e393436392035302e363036332032312e393930372034382e353338334332322e303532332034382e343137322032312e393933352034382e323733352032312e383637362034382e323235364331392e393336362034372e343933312031382e303937392034362e362031362e333239322034352e353835384331362e313839332034352e353034312031362e313738312034352e3330342031362e333036382034352e323038324331362e3637392034342e393239332031372e303531332034342e363339312031372e343036372034342e333436314331372e3437312034342e323932362031372e353630362034342e323831332031372e363336322034342e333135314332392e323535382034392e363230322034312e383335342034392e363230322035332e333137392034342e333135314335332e333933352034342e323738352035332e343833312034342e323839382035332e353530322034342e333433334335332e393035372034342e363336332035342e323737392034342e393239332035342e363532392034352e323038324335342e373831362034352e3330342035342e373733322034352e353034312035342e363333332034352e353835384335322e383634362034362e363139372035312e303235392034372e343933312034392e303932312034382e323232384334382e393636322034382e323730372034382e393130322034382e343137322034382e393731382034382e353338334335302e3033382035302e363033342035312e323535342035322e353639392035322e353935392035342e3433354335322e363531392035342e353133392035322e373532362035342e353437372035322e3834352035342e353139354335382e363436342035322e373234392036342e3532392035302e303137342037302e363031392034352e353537364337302e363535312034352e353138322037302e363838372034352e3435392037302e363934332034352e333934324337322e313734372033302e303739312036382e323134372031362e373735372036302e3139363820342e393832334336302e3137373220342e393432392036302e3134333720342e393134372036302e3130343520342e383937385a22202f3e3c636972636c652063783d223234222063793d2233302220723d2237222066696c6c3d222366666622207374726f6b652d77696474683d223022202f3e3c636972636c652063783d2234372e35222063793d2233302220723d2237222066696c6c3d222366666622207374726f6b652d77696474683d223022202f3e3c2f7376673e3c7465787420783d223130302220793d22323730223e3c73766720783d2237302220793d223334382220786d6c6e733d22687474703a2f2f7777772e77332e6f72672f323030302f737667222077696474683d22323422206865696768743d223234222076696577426f783d22302030203234203234222066696c6c3d226e6f6e6522207374726f6b653d222366666622207374726f6b652d77696474683d223122207374726f6b652d6c696e656361703d22726f756e6422207374726f6b652d6c696e656a6f696e3d22726f756e64223e3c636972636c652063783d223132222063793d2231322220723d223130223e3c2f636972636c653e3c6c696e652078313d2232222079313d223132222078323d223232222079323d223132223e3c2f6c696e653e3c7061746820643d224d313220326131352e332031352e3320302030203120342031302031352e332031352e332030203020312d342031302031352e332031352e332030203020312d342d31302031352e332031352e3320302030203120342d31307a223e3c2f706174683e3c2f7376673e3c6120786c696e6b3a687265663d223c73766720783d2236382220793d223134352220786d6c6e733d22687474703a2f2f7777772e77332e6f72672f323030302f737667222077696474683d22323822206865696768743d223238222076696577426f783d22302030203234203234222066696c6c3d226e6f6e6522207374726f6b653d222366666622207374726f6b652d77696474683d222e3722207374726f6b652d6c696e656361703d22726f756e6422207374726f6b652d6c696e656a6f696e3d22726f756e64223e3c636972636c652063783d223133222063793d2231322220723d22313022202f3e3c7465787420666f6e742d73697a653d22382220783d2231332220793d2231352220746578742d616e63686f723d226d6964646c6522207374726f6b653d226e6f6e65222066696c6c3d2223666666223e445f443c2f746578743e3c2f7376673e3c7465787420783d223130302220793d22313730223e234142434445464748494a4b4c4d4e4f505152535455565758595a6162636465666768696a6b6c6d6e6f707172737475767778797a303132333435363738392b2f3c73766720786d6c6e733d22687474703a2f2f7777772e77332e6f72672f323030302f7376672220786d6c6e733a786c696e6b3d22687474703a2f2f7777772e77332e6f72672f313939392f786c696e6b222077696474683d2235303022206865696768743d22353030222066696c6c3d226e6f6e65223e3c726563742066696c6c3d2275726c28234629222077696474683d2235303022206865696768743d22353030222072783d223235223e3c2f726563743e3c646566733e3c6c696e6561724772616469656e742069643d2246222078313d2231222079313d2230222078323d2230222079323d2231223e3c73746f70206f66667365743d223022207374796c653d2273746f702d636f6c6f723a23303030222f3e3c73746f70206f66667365743d223122207374796c653d2273746f702d636f6c6f723a2334343422202f3e3c2f6c696e6561724772616469656e743e3c7374796c6520747970653d22746578742f637373223e2f2a203c215b43444154415b202a2f617b637572736f723a20706f696e7465723b7d6120746578747b66696c6c3a236666663b746578742d6465636f726174696f6e3a6e6f6e653b7d613a686f7665722c613a6163746976657b6f75746c696e653a646f747465642031707820236666663b626f726465722d7261646975733a3570783b7d2f2a205d5d3e202a2f3c2f7374796c653e3c2f646566733e3c646566733e3c66696c7465722069643d2266322220783d22302220793d2230222077696474683d223230302522206865696768743d2232303025223e3c6665436f6c6f724d617472697820726573756c743d226d61747269784f75742220696e3d226f66664f75742220747970653d226d6174726978222076616c7565733d22302e382030203020302030203020302e382030203020302030203020302e3820302030203020302030202e34203022202f3e3c6665476175737369616e426c757220726573756c743d22626c75724f75742220696e3d226f66664f75742220737464446576696174696f6e3d22312e35222f3e3c6665426c656e6420696e3d22536f75726365477261706869632220696e323d22626c75724f757422206d6f64653d226e6f726d616c22202f3e3c2f66696c7465723e3c2f646566733e3c7265637420783d2231302220793d223130222066696c6c3d226e6f6e65222077696474683d2234383022206865696768743d22343830222072783d22323022207374726f6b653d222366666622207374726f6b652d77696474683d2232223e3c2f726563743e3c672066696c6c3d22236666662220666f6e742d73697a653d2233302220666f6e742d7765696768743d223130302220666f6e742d66616d696c793d2273616e732d7365726966222066696c7465723d2275726c2823663229223e3c7465787420783d223434302220793d2238302220746578742d616e63686f723d22656e642220666f6e742d73697a653d2233362220666f6e742d7765696768743d22343030223e3c73766720783d2237302220793d223339382220786d6c6e733d22687474703a2f2f7777772e77332e6f72672f323030302f737667222077696474683d22323422206865696768743d223234222076696577426f783d22302030203234203234222066696c6c3d226e6f6e6522207374726f6b653d222366666622207374726f6b652d77696474683d223122207374726f6b652d6c696e656361703d22726f756e6422207374726f6b652d6c696e656a6f696e3d22726f756e64223e3c7061746820643d224d313220314c31382031324c31322031354c362031327a22202f3e3c7061746820643d224d31322031384c31382031354c31322032334c362031357a22202f3e3c2f7376673e3c7465787420783d223130302220793d223431362220666f6e742d73697a653d223136223e3c73766720783d2237302220793d223139382220786d6c6e733d22687474703a2f2f7777772e77332e6f72672f323030302f737667222077696474683d22323422206865696768743d223234222076696577426f783d22302030203234203234222066696c6c3d226e6f6e6522207374726f6b653d222366666622207374726f6b652d77696474683d223122207374726f6b652d6c696e656361703d22726f756e6422207374726f6b652d6c696e656a6f696e3d22726f756e64223e3c7061746820643d224d323320336131302e392031302e392030203020312d332e313420312e353320342e343820342e34382030203020302d372e3836203376314131302e36362031302e363620302030203120332034732d34203920352031336131312e36342031312e36342030203020312d3720326339203520323020302032302d31312e3561342e3520342e352030203020302d2e30382d2e383341372e373220372e373220302030203020323320337a22202f3e3c2f7376673e3c7465787420783d223130302220793d22323230223ea2646970667358221220c6f466cb1b4cafc388b40b9d51c74cd95506b9416f26ff2c2d5c8443f7f8980e64736f6c634300080a0033",
  "linkReferences": {},
  "deployedLinkReferences": {}
}