{
  "_format": "hh-sol-artifact-1",
  "contractName": "DevDaoDomain",
  "sourceName": "contracts/DevDaoDomain.sol",
  "abi": [
    {
      "inputs": [],
      "stateMutability": "nonpayable",
      "type": "constructor"
    },
    {
      "inputs": [
        {
          "internalType": "uint256",
          "name": "maxLength",
          "type": "uint256"
        }
      ],
      "name": "DomainNameTooLong",
      "type": "error"
    },
    {
      "inputs": [
        {
          "internalType": "uint256",
          "name": "minLength",
          "type": "uint256"
        }
      ],
      "name": "DomainNameTooShort",
      "type": "error"
    },
    {
      "inputs": [
        {
          "internalType": "uint256",
          "name": "tokenId",
          "type": "uint256"
        }
      ],
      "name": "NonExistentToken",
      "type": "error"
    },
    {
      "inputs": [],
      "name": "NotTokenOwner",
      "type": "error"
    },
    {
      "anonymous": false,
      "inputs": [
        {
          "indexed": true,
          "internalType": "address",
          "name": "owner",
          "type": "address"
        },
        {
          "indexed": true,
          "internalType": "address",
          "name": "approved",
          "type": "address"
        },
        {
          "indexed": true,
          "internalType": "uint256",
          "name": "tokenId",
          "type": "uint256"
        }
      ],
      "name": "Approval",
      "type": "event"
    },
    {
      "anonymous": false,
      "inputs": [
        {
          "indexed": true,
          "internalType": "address",
          "name": "owner",
          "type": "address"
        },
        {
          "indexed": true,
          "internalType": "address",
          "name": "operator",
          "type": "address"
        },
        {
          "indexed": false,
          "internalType": "bool",
          "name": "approved",
          "type": "bool"
        }
      ],
      "name": "ApprovalForAll",
      "type": "event"
    },
    {
      "anonymous": false,
      "inputs": [
        {
          "indexed": true,
          "internalType": "address",
          "name": "from",
          "type": "address"
        },
        {
          "indexed": true,
          "internalType": "address",
          "name": "to",
          "type": "address"
        },
        {
          "indexed": true,
          "internalType": "uint256",
          "name": "tokenId",
          "type": "uint256"
        }
      ],
      "name": "Transfer",
      "type": "event"
    },
    {
      "inputs": [
        {
          "internalType": "address",
          "name": "to",
          "type": "address"
        },
        {
          "internalType": "uint256",
          "name": "tokenId",
          "type": "uint256"
        }
      ],
      "name": "approve",
      "outputs": [],
      "stateMutability": "nonpayable",
      "type": "function"
    },
    {
      "inputs": [
        {
          "internalType": "address",
          "name": "owner",
          "type": "address"
        }
      ],
      "name": "balanceOf",
      "outputs": [
        {
          "internalType": "uint256",
          "name": "",
          "type": "uint256"
        }
      ],
      "stateMutability": "view",
      "type": "function"
    },
    {
      "inputs": [
        {
          "internalType": "uint256",
          "name": "tokenId",
          "type": "uint256"
        }
      ],
      "name": "burn",
      "outputs": [],
      "stateMutability": "nonpayable",
      "type": "function"
    },
    {
      "inputs": [
        {
          "internalType": "address",
          "name": "owner",
          "type": "address"
        },
        {
          "internalType": "uint256",
          "name": "index",
          "type": "uint256"
        }
      ],
      "name": "domainOfOwnerByIndex",
      "outputs": [
        {
          "internalType": "string",
          "name": "",
          "type": "string"
        }
      ],
      "stateMutability": "view",
      "type": "function"
    },
    {
      "inputs": [
        {
          "internalType": "uint256",
          "name": "tokenId",
          "type": "uint256"
        }
      ],
      "name": "getApproved",
      "outputs": [
        {
          "internalType": "address",
          "name": "",
          "type": "address"
        }
      ],
      "stateMutability": "view",
      "type": "function"
    },
    {
      "inputs": [
        {
          "internalType": "string",
          "name": "_domain",
          "type": "string"
        }
      ],
      "name": "getInfoByDomain",
      "outputs": [
        {
          "components": [
            {
              "internalType": "bool",
              "name": "showAddress",
              "type": "bool"
            },
            {
              "internalType": "bool",
              "name": "showUrl",
              "type": "bool"
            },
            {
              "internalType": "bool",
              "name": "showTwitter",
              "type": "bool"
            },
            {
              "internalType": "bool",
              "name": "showDiscord",
              "type": "bool"
            },
            {
              "internalType": "bool",
              "name": "showGithub",
              "type": "bool"
            },
            {
              "internalType": "bool",
              "name": "showD4R",
              "type": "bool"
            },
            {
              "internalType": "address",
              "name": "addr",
              "type": "address"
            },
            {
              "internalType": "string",
              "name": "domain",
              "type": "string"
            },
            {
              "internalType": "string",
              "name": "url",
              "type": "string"
            },
            {
              "internalType": "string",
              "name": "twitter",
              "type": "string"
            },
            {
              "internalType": "string",
              "name": "discord",
              "type": "string"
            },
            {
              "internalType": "string",
              "name": "github",
              "type": "string"
            }
          ],
          "internalType": "struct DDDInfo",
          "name": "info",
          "type": "tuple"
        }
      ],
      "stateMutability": "view",
      "type": "function"
    },
    {
      "inputs": [
        {
          "internalType": "uint256",
          "name": "_tokenId",
          "type": "uint256"
        }
      ],
      "name": "getInfoByTokenId",
      "outputs": [
        {
          "components": [
            {
              "internalType": "bool",
              "name": "showAddress",
              "type": "bool"
            },
            {
              "internalType": "bool",
              "name": "showUrl",
              "type": "bool"
            },
            {
              "internalType": "bool",
              "name": "showTwitter",
              "type": "bool"
            },
            {
              "internalType": "bool",
              "name": "showDiscord",
              "type": "bool"
            },
            {
              "internalType": "bool",
              "name": "showGithub",
              "type": "bool"
            },
            {
              "internalType": "bool",
              "name": "showD4R",
              "type": "bool"
            },
            {
              "internalType": "address",
              "name": "addr",
              "type": "address"
            },
            {
              "internalType": "string",
              "name": "domain",
              "type": "string"
            },
            {
              "internalType": "string",
              "name": "url",
              "type": "string"
            },
            {
              "internalType": "string",
              "name": "twitter",
              "type": "string"
            },
            {
              "internalType": "string",
              "name": "discord",
              "type": "string"
            },
            {
              "internalType": "string",
              "name": "github",
              "type": "string"
            }
          ],
          "internalType": "struct DDDInfo",
          "name": "info",
          "type": "tuple"
        }
      ],
      "stateMutability": "view",
      "type": "function"
    },
    {
      "inputs": [
        {
          "internalType": "address",
          "name": "owner",
          "type": "address"
        },
        {
          "internalType": "address",
          "name": "operator",
          "type": "address"
        }
      ],
      "name": "isApprovedForAll",
      "outputs": [
        {
          "internalType": "bool",
          "name": "",
          "type": "bool"
        }
      ],
      "stateMutability": "view",
      "type": "function"
    },
    {
      "inputs": [
        {
          "internalType": "string",
          "name": "_domain",
          "type": "string"
        }
      ],
      "name": "mint",
      "outputs": [
        {
          "internalType": "uint256",
          "name": "tokenId",
          "type": "uint256"
        }
      ],
      "stateMutability": "nonpayable",
      "type": "function"
    },
    {
      "inputs": [
        {
          "components": [
            {
              "internalType": "bool",
              "name": "showAddress",
              "type": "bool"
            },
            {
              "internalType": "bool",
              "name": "showUrl",
              "type": "bool"
            },
            {
              "internalType": "bool",
              "name": "showTwitter",
              "type": "bool"
            },
            {
              "internalType": "bool",
              "name": "showDiscord",
              "type": "bool"
            },
            {
              "internalType": "bool",
              "name": "showGithub",
              "type": "bool"
            },
            {
              "internalType": "bool",
              "name": "showD4R",
              "type": "bool"
            },
            {
              "internalType": "address",
              "name": "addr",
              "type": "address"
            },
            {
              "internalType": "string",
              "name": "domain",
              "type": "string"
            },
            {
              "internalType": "string",
              "name": "url",
              "type": "string"
            },
            {
              "internalType": "string",
              "name": "twitter",
              "type": "string"
            },
            {
              "internalType": "string",
              "name": "discord",
              "type": "string"
            },
            {
              "internalType": "string",
              "name": "github",
              "type": "string"
            }
          ],
          "internalType": "struct DDDInfo",
          "name": "_data",
          "type": "tuple"
        }
      ],
      "name": "mintWithInfo",
      "outputs": [
        {
          "internalType": "uint256",
          "name": "tokenId",
          "type": "uint256"
        }
      ],
      "stateMutability": "nonpayable",
      "type": "function"
    },
    {
      "inputs": [],
      "name": "name",
      "outputs": [
        {
          "internalType": "string",
          "name": "",
          "type": "string"
        }
      ],
      "stateMutability": "view",
      "type": "function"
    },
    {
      "inputs": [
        {
          "internalType": "uint256",
          "name": "tokenId",
          "type": "uint256"
        }
      ],
      "name": "ownerOf",
      "outputs": [
        {
          "internalType": "address",
          "name": "",
          "type": "address"
        }
      ],
      "stateMutability": "view",
      "type": "function"
    },
    {
      "inputs": [
        {
          "internalType": "address",
          "name": "from",
          "type": "address"
        },
        {
          "internalType": "address",
          "name": "to",
          "type": "address"
        },
        {
          "internalType": "uint256",
          "name": "tokenId",
          "type": "uint256"
        }
      ],
      "name": "safeTransferFrom",
      "outputs": [],
      "stateMutability": "nonpayable",
      "type": "function"
    },
    {
      "inputs": [
        {
          "internalType": "address",
          "name": "from",
          "type": "address"
        },
        {
          "internalType": "address",
          "name": "to",
          "type": "address"
        },
        {
          "internalType": "uint256",
          "name": "tokenId",
          "type": "uint256"
        },
        {
          "internalType": "bytes",
          "name": "_data",
          "type": "bytes"
        }
      ],
      "name": "safeTransferFrom",
      "outputs": [],
      "stateMutability": "nonpayable",
      "type": "function"
    },
    {
      "inputs": [
        {
          "internalType": "string",
          "name": "_domain",
          "type": "string"
        },
        {
          "internalType": "bool",
          "name": "_showAddress",
          "type": "bool"
        },
        {
          "internalType": "address",
          "name": "_address",
          "type": "address"
        }
      ],
      "name": "setAddress",
      "outputs": [],
      "stateMutability": "nonpayable",
      "type": "function"
    },
    {
      "inputs": [
        {
          "internalType": "address",
          "name": "operator",
          "type": "address"
        },
        {
          "internalType": "bool",
          "name": "approved",
          "type": "bool"
        }
      ],
      "name": "setApprovalForAll",
      "outputs": [],
      "stateMutability": "nonpayable",
      "type": "function"
    },
    {
      "inputs": [
        {
          "internalType": "string",
          "name": "_domain",
          "type": "string"
        },
        {
          "internalType": "bool",
          "name": "_showDiscord",
          "type": "bool"
        },
        {
          "internalType": "string",
          "name": "_discord",
          "type": "string"
        }
      ],
      "name": "setDiscord",
      "outputs": [],
      "stateMutability": "nonpayable",
      "type": "function"
    },
    {
      "inputs": [
        {
          "internalType": "string",
          "name": "_domain",
          "type": "string"
        },
        {
          "internalType": "bool",
          "name": "_showGithub",
          "type": "bool"
        },
        {
          "internalType": "string",
          "name": "_github",
          "type": "string"
        }
      ],
      "name": "setGithub",
      "outputs": [],
      "stateMutability": "nonpayable",
      "type": "function"
    },
    {
      "inputs": [
        {
          "internalType": "string",
          "name": "_domain",
          "type": "string"
        },
        {
          "components": [
            {
              "internalType": "bool",
              "name": "showAddress",
              "type": "bool"
            },
            {
              "internalType": "bool",
              "name": "showUrl",
              "type": "bool"
            },
            {
              "internalType": "bool",
              "name": "showTwitter",
              "type": "bool"
            },
            {
              "internalType": "bool",
              "name": "showDiscord",
              "type": "bool"
            },
            {
              "internalType": "bool",
              "name": "showGithub",
              "type": "bool"
            },
            {
              "internalType": "bool",
              "name": "showD4R",
              "type": "bool"
            },
            {
              "internalType": "address",
              "name": "addr",
              "type": "address"
            },
            {
              "internalType": "string",
              "name": "domain",
              "type": "string"
            },
            {
              "internalType": "string",
              "name": "url",
              "type": "string"
            },
            {
              "internalType": "string",
              "name": "twitter",
              "type": "string"
            },
            {
              "internalType": "string",
              "name": "discord",
              "type": "string"
            },
            {
              "internalType": "string",
              "name": "github",
              "type": "string"
            }
          ],
          "internalType": "struct DDDInfo",
          "name": "_data",
          "type": "tuple"
        }
      ],
      "name": "setInfo",
      "outputs": [],
      "stateMutability": "nonpayable",
      "type": "function"
    },
    {
      "inputs": [
        {
          "internalType": "string",
          "name": "_domain",
          "type": "string"
        },
        {
          "internalType": "bool",
          "name": "_showTwitter",
          "type": "bool"
        },
        {
          "internalType": "string",
          "name": "_twitter",
          "type": "string"
        }
      ],
      "name": "setTwitter",
      "outputs": [],
      "stateMutability": "nonpayable",
      "type": "function"
    },
    {
      "inputs": [
        {
          "internalType": "string",
          "name": "_domain",
          "type": "string"
        },
        {
          "internalType": "bool",
          "name": "_showUrl",
          "type": "bool"
        },
        {
          "internalType": "string",
          "name": "_url",
          "type": "string"
        }
      ],
      "name": "setUrl",
      "outputs": [],
      "stateMutability": "nonpayable",
      "type": "function"
    },
    {
      "inputs": [
        {
          "internalType": "bytes4",
          "name": "interfaceId",
          "type": "bytes4"
        }
      ],
      "name": "supportsInterface",
      "outputs": [
        {
          "internalType": "bool",
          "name": "",
          "type": "bool"
        }
      ],
      "stateMutability": "view",
      "type": "function"
    },
    {
      "inputs": [],
      "name": "symbol",
      "outputs": [
        {
          "internalType": "string",
          "name": "",
          "type": "string"
        }
      ],
      "stateMutability": "view",
      "type": "function"
    },
    {
      "inputs": [
        {
          "internalType": "uint256",
          "name": "index",
          "type": "uint256"
        }
      ],
      "name": "tokenByIndex",
      "outputs": [
        {
          "internalType": "uint256",
          "name": "",
          "type": "uint256"
        }
      ],
      "stateMutability": "view",
      "type": "function"
    },
    {
      "inputs": [
        {
          "internalType": "address",
          "name": "owner",
          "type": "address"
        },
        {
          "internalType": "uint256",
          "name": "index",
          "type": "uint256"
        }
      ],
      "name": "tokenOfOwnerByIndex",
      "outputs": [
        {
          "internalType": "uint256",
          "name": "",
          "type": "uint256"
        }
      ],
      "stateMutability": "view",
      "type": "function"
    },
    {
      "inputs": [
        {
          "internalType": "uint256",
          "name": "_tokenId",
          "type": "uint256"
        }
      ],
      "name": "tokenURI",
      "outputs": [
        {
          "internalType": "string",
          "name": "",
          "type": "string"
        }
      ],
      "stateMutability": "view",
      "type": "function"
    },
    {
      "inputs": [],
      "name": "totalSupply",
      "outputs": [
        {
          "internalType": "uint256",
          "name": "",
          "type": "uint256"
        }
      ],
      "stateMutability": "view",
      "type": "function"
    },
    {
      "inputs": [
        {
          "internalType": "address",
          "name": "from",
          "type": "address"
        },
        {
          "internalType": "address",
          "name": "to",
          "type": "address"
        },
        {
          "internalType": "uint256",
          "name": "tokenId",
          "type": "uint256"
        }
      ],
      "name": "transferFrom",
      "outputs": [],
      "stateMutability": "nonpayable",
      "type": "function"
    }
  ],
  "bytecode": "0x60806040523480156200001157600080fd5b50604080518082018252600381526211111160ea1b60208083019182528351808501909452600e84526d44657644616f20446f6d61696e7360901b908401528151919291620000639160009162000082565b5080516200007990600190602084019062000082565b50505062000165565b828054620000909062000128565b90600052602060002090601f016020900481019282620000b45760008555620000ff565b82601f10620000cf57805160ff1916838001178555620000ff565b82800160010185558215620000ff579182015b82811115620000ff578251825591602001919060010190620000e2565b506200010d92915062000111565b5090565b5b808211156200010d576000815560010162000112565b600181811c908216806200013d57607f821691505b602082108114156200015f57634e487b7160e01b600052602260045260246000fd5b50919050565b614de880620001756000396000f3fe608060405234801561001057600080fd5b50600436106101c45760003560e01c80636352211e116100f9578063b8e1b4a811610097578063d85d3d2711610071578063d85d3d27146103c7578063e6b66b3c146103da578063e985e9c5146103ed578063f3682d381461042957600080fd5b8063b8e1b4a81461038e578063c87b56dd146103a1578063d362687f146103b457600080fd5b8063961843f7116100d3578063961843f71461034257806396ec2b4d14610355578063a22cb46514610368578063b88d4fde1461037b57600080fd5b80636352211e1461031457806370a082311461032757806395d89b411461033a57600080fd5b806318160ddd1161016657806342842e0e1161014057806342842e0e146102bb57806342966c68146102ce57806346b5db4d146102e15780634f6ccce71461030157600080fd5b806318160ddd1461028d57806323b872dd146102955780632f745c59146102a857600080fd5b8063095ea7b3116101a2578063095ea7b31461023157806309903a8e146102465780630a3f8679146102595780631757bdbb1461026c57600080fd5b806301ffc9a7146101c957806306fdde03146101f1578063081812fc14610206575b600080fd5b6101dc6101d7366004612cc5565b61043c565b60405190151581526020015b60405180910390f35b6101f961044d565b6040516101e89190612d3a565b610219610214366004612d4d565b6104df565b6040516001600160a01b0390911681526020016101e8565b61024461023f366004612d7d565b610579565b005b610244610254366004612feb565b61068f565b61024461026736600461304f565b61083e565b61027f61027a3660046130ad565b6108c7565b6040519081526020016101e8565b60085461027f565b6102446102a33660046130e2565b6108eb565b61027f6102b6366004612d7d565b61091d565b6102446102c93660046130e2565b6109b3565b6102446102dc366004612d4d565b6109ce565b6102f46102ef36600461311e565b610a48565b6040516101e89190613153565b61027f61030f366004612d4d565b610dcd565b610219610322366004612d4d565b610e60565b61027f61033536600461326c565b610ed7565b6101f9610f5e565b610244610350366004613287565b610f6d565b610244610363366004613287565b610fda565b610244610376366004613329565b611041565b61024461038936600461335c565b611050565b61024461039c366004613287565b611082565b6101f96103af366004612d4d565b6110eb565b6102446103c2366004613287565b6114a2565b61027f6103d536600461311e565b61150d565b6102f46103e8366004612d4d565b611598565b6101dc6103fb3660046133d8565b6001600160a01b03918216600090815260056020908152604080832093909416825291909152205460ff1690565b6101f9610437366004612d7d565b611647565b6000610447826116fc565b92915050565b60606000805461045c90613402565b80601f016020809104026020016040519081016040528092919081815260200182805461048890613402565b80156104d55780601f106104aa576101008083540402835291602001916104d5565b820191906000526020600020905b8154815290600101906020018083116104b857829003601f168201915b5050505050905090565b6000818152600260205260408120546001600160a01b031661055d5760405162461bcd60e51b815260206004820152602c60248201527f4552433732313a20617070726f76656420717565727920666f72206e6f6e657860448201526b34b9ba32b73a103a37b5b2b760a11b60648201526084015b60405180910390fd5b506000908152600460205260409020546001600160a01b031690565b600061058482610e60565b9050806001600160a01b0316836001600160a01b031614156105f25760405162461bcd60e51b815260206004820152602160248201527f4552433732313a20617070726f76616c20746f2063757272656e74206f776e656044820152603960f91b6064820152608401610554565b336001600160a01b038216148061060e575061060e81336103fb565b6106805760405162461bcd60e51b815260206004820152603860248201527f4552433732313a20617070726f76652063616c6c6572206973206e6f74206f7760448201527f6e6572206e6f7220617070726f76656420666f7220616c6c00000000000000006064820152608401610554565b61068a8383611721565b505050565b81516020830120336106a082610e60565b6001600160a01b0316146106c7576040516359dc379f60e01b815260040160405180910390fd5b81516000828152600a6020908152604091829020805482870151938701516060880151608089015160a08a015160c08b015161ffff1990951698151561ff0019169890981761010097151588021763ffff00001916620100009315159390930263ff0000001916929092176301000000911515919091021765ffff0000000019166401000000009115159190910265ff0000000000191617600160281b95151595909502949094176601000000000000600160d01b031916600160301b6001600160a01b03909516949094029390931783559084015180516107b193600201929190910190612af6565b506101208201516000828152600a6020908152604090912082516107de9360039092019290910190612af6565b506101408201516000828152600a60209081526040909120825161080b9360049092019290910190612af6565b506101608201516000828152600a6020908152604090912082516108389360059092019290910190612af6565b50505050565b825160208401203361084f82610e60565b6001600160a01b031614610876576040516359dc379f60e01b815260040160405180910390fd5b6000908152600a60205260409020805465ffffffffff01600160d01b0319169215156601000000000000600160d01b03191692909217600160301b6001600160a01b03929092169190910217905550565b60006108d68260e0015161150d565b90506108e68260e001518361068f565b919050565b6108f6335b8261178f565b6109125760405162461bcd60e51b815260040161055490613437565b61068a838383611886565b600061092883610ed7565b821061098a5760405162461bcd60e51b815260206004820152602b60248201527f455243373231456e756d657261626c653a206f776e657220696e646578206f7560448201526a74206f6620626f756e647360a81b6064820152608401610554565b506001600160a01b03919091166000908152600660209081526040808320938352929052205490565b61068a83838360405180602001604052806000815250611050565b6109d7336108f0565b610a3c5760405162461bcd60e51b815260206004820152603060248201527f4552433732314275726e61626c653a2063616c6c6572206973206e6f74206f7760448201526f1b995c881b9bdc88185c1c1c9bdd995960821b6064820152608401610554565b610a4581611a2d565b50565b610a50612b7a565b81516020808401919091206000908152600a8252604090819020815161018081018352815460ff80821615158352610100820481161515958301959095526201000081048516151593820193909352630100000083048416151560608201526401000000008304841615156080820152600160281b8304909316151560a0840152600160301b9091046001600160a01b031660c083015260018101805460e084019190610afc90613402565b80601f0160208091040260200160405190810160405280929190818152602001828054610b2890613402565b8015610b755780601f10610b4a57610100808354040283529160200191610b75565b820191906000526020600020905b815481529060010190602001808311610b5857829003601f168201915b50505050508152602001600282018054610b8e90613402565b80601f0160208091040260200160405190810160405280929190818152602001828054610bba90613402565b8015610c075780601f10610bdc57610100808354040283529160200191610c07565b820191906000526020600020905b815481529060010190602001808311610bea57829003601f168201915b50505050508152602001600382018054610c2090613402565b80601f0160208091040260200160405190810160405280929190818152602001828054610c4c90613402565b8015610c995780601f10610c6e57610100808354040283529160200191610c99565b820191906000526020600020905b815481529060010190602001808311610c7c57829003601f168201915b50505050508152602001600482018054610cb290613402565b80601f0160208091040260200160405190810160405280929190818152602001828054610cde90613402565b8015610d2b5780601f10610d0057610100808354040283529160200191610d2b565b820191906000526020600020905b815481529060010190602001808311610d0e57829003601f168201915b50505050508152602001600582018054610d4490613402565b80601f0160208091040260200160405190810160405280929190818152602001828054610d7090613402565b8015610dbd5780601f10610d9257610100808354040283529160200191610dbd565b820191906000526020600020905b815481529060010190602001808311610da057829003601f168201915b5050505050815250509050919050565b6000610dd860085490565b8210610e3b5760405162461bcd60e51b815260206004820152602c60248201527f455243373231456e756d657261626c653a20676c6f62616c20696e646578206f60448201526b7574206f6620626f756e647360a01b6064820152608401610554565b60088281548110610e4e57610e4e613488565b90600052602060002001549050919050565b6000818152600260205260408120546001600160a01b0316806104475760405162461bcd60e51b815260206004820152602960248201527f4552433732313a206f776e657220717565727920666f72206e6f6e657869737460448201526832b73a103a37b5b2b760b91b6064820152608401610554565b60006001600160a01b038216610f425760405162461bcd60e51b815260206004820152602a60248201527f4552433732313a2062616c616e636520717565727920666f7220746865207a65604482015269726f206164647265737360b01b6064820152608401610554565b506001600160a01b031660009081526003602052604090205490565b60606001805461045c90613402565b8351602085012033610f7e82610e60565b6001600160a01b031614610fa5576040516359dc379f60e01b815260040160405180910390fd5b6000818152600a60205260409020805461ff00191661010086151502178155610fd2906002018484612bf0565b505050505050565b8351602085012033610feb82610e60565b6001600160a01b031614611012576040516359dc379f60e01b815260040160405180910390fd5b6000818152600a60205260409020805462ff000019166201000086151502178155610fd2906003018484612bf0565b61104c338383611a98565b5050565b61105a338361178f565b6110765760405162461bcd60e51b815260040161055490613437565b61083884848484611b67565b835160208501203361109382610e60565b6001600160a01b0316146110ba576040516359dc379f60e01b815260040160405180910390fd5b6000818152600a60205260409020805463ff0000001916630100000086151502178155610fd2906004018484612bf0565b6000818152600260205260409020546060906001600160a01b0316611126576040516338077a2b60e01b815260048101839052602401610554565b6000828152600a6020908152604091829020825161018081018452815460ff80821615158352610100820481161515948301949094526201000081048416151594820194909452630100000084048316151560608201526401000000008404831615156080820152600160281b8404909216151560a0830152600160301b9092046001600160a01b031660c082015260018201805461044793869392909160e0840191906111d390613402565b80601f01602080910402602001604051908101604052809291908181526020018280546111ff90613402565b801561124c5780601f106112215761010080835404028352916020019161124c565b820191906000526020600020905b81548152906001019060200180831161122f57829003601f168201915b5050505050815260200160028201805461126590613402565b80601f016020809104026020016040519081016040528092919081815260200182805461129190613402565b80156112de5780601f106112b3576101008083540402835291602001916112de565b820191906000526020600020905b8154815290600101906020018083116112c157829003601f168201915b505050505081526020016003820180546112f790613402565b80601f016020809104026020016040519081016040528092919081815260200182805461132390613402565b80156113705780601f1061134557610100808354040283529160200191611370565b820191906000526020600020905b81548152906001019060200180831161135357829003601f168201915b5050505050815260200160048201805461138990613402565b80601f01602080910402602001604051908101604052809291908181526020018280546113b590613402565b80156114025780601f106113d757610100808354040283529160200191611402565b820191906000526020600020905b8154815290600101906020018083116113e557829003601f168201915b5050505050815260200160058201805461141b90613402565b80601f016020809104026020016040519081016040528092919081815260200182805461144790613402565b80156114945780601f1061146957610100808354040283529160200191611494565b820191906000526020600020905b81548152906001019060200180831161147757829003601f168201915b505050505081525050611b9a565b83516020850120336114b382610e60565b6001600160a01b0316146114da576040516359dc379f60e01b815260040160405180910390fd5b6000818152600a60205260409020805464ff00000000191664010000000086151502178155610fd2906005018484612bf0565b60006003825110156115355760405163292a4c5760e11b815260036004820152602401610554565b600c8251111561155b57604051632e2f558360e21b8152600c6004820152602401610554565b508051602082012061156d3382611d90565b6000818152600a60209081526040909120835161159292600190920191850190612af6565b50919050565b6115a0612b7a565b6000828152600a6020908152604091829020825161018081018452815460ff80821615158352610100820481161515948301949094526201000081048416151594820194909452630100000084048316151560608201526401000000008404831615156080820152600160281b8404909216151560a0830152600160301b9092046001600160a01b031660c082015260018201805491929160e084019190610afc90613402565b60606000611655848461091d565b6000818152600a6020526040902060010180549192509061167590613402565b80601f01602080910402602001604051908101604052809291908181526020018280546116a190613402565b80156116ee5780601f106116c3576101008083540402835291602001916116ee565b820191906000526020600020905b8154815290600101906020018083116116d157829003601f168201915b505050505091505092915050565b60006001600160e01b0319821663780e9d6360e01b1480610447575061044782611daa565b600081815260046020526040902080546001600160a01b0319166001600160a01b038416908117909155819061175682610e60565b6001600160a01b03167f8c5be1e5ebec7d5bd14f71427d1e84f3dd0314c0f7b2291e5b200ac8c7c3b92560405160405180910390a45050565b6000818152600260205260408120546001600160a01b03166118085760405162461bcd60e51b815260206004820152602c60248201527f4552433732313a206f70657261746f7220717565727920666f72206e6f6e657860448201526b34b9ba32b73a103a37b5b2b760a11b6064820152608401610554565b600061181383610e60565b9050806001600160a01b0316846001600160a01b0316148061184e5750836001600160a01b0316611843846104df565b6001600160a01b0316145b8061187e57506001600160a01b0380821660009081526005602090815260408083209388168352929052205460ff165b949350505050565b826001600160a01b031661189982610e60565b6001600160a01b0316146118fd5760405162461bcd60e51b815260206004820152602560248201527f4552433732313a207472616e736665722066726f6d20696e636f72726563742060448201526437bbb732b960d91b6064820152608401610554565b6001600160a01b03821661195f5760405162461bcd60e51b8152602060048201526024808201527f4552433732313a207472616e7366657220746f20746865207a65726f206164646044820152637265737360e01b6064820152608401610554565b61196a838383611dfa565b611975600082611721565b6001600160a01b038316600090815260036020526040812080546001929061199e9084906134b4565b90915550506001600160a01b03821660009081526003602052604081208054600192906119cc9084906134cb565b909155505060008181526002602052604080822080546001600160a01b0319166001600160a01b0386811691821790925591518493918716917fddf252ad1be2c89b69c2b068fc378daa952ba7f163c4a11628f55a4df523b3ef91a4505050565b611a3681611e05565b6000818152600a6020526040812080546001600160d01b031916815590611a606001830182612c64565b611a6e600283016000612c64565b611a7c600383016000612c64565b611a8a600483016000612c64565b61068a600583016000612c64565b816001600160a01b0316836001600160a01b03161415611afa5760405162461bcd60e51b815260206004820152601960248201527f4552433732313a20617070726f766520746f2063616c6c6572000000000000006044820152606401610554565b6001600160a01b03838116600081815260056020908152604080832094871680845294825291829020805460ff191686151590811790915591519182527f17307eab39ab6107e8899845ad3d59bd9653f200f220920489ca2b5937696c31910160405180910390a3505050565b611b72848484611886565b611b7e84848484611eac565b6108385760405162461bcd60e51b8152600401610554906134e3565b60606000611ba784611faa565b90506000611bb4846120a8565b9050606084604001518015611bcf5750600085610120015151115b15611bfc57846101200151604051602001611bea9190613551565b60405160208183030381529060405290505b84606001518015611c135750600085610140015151115b15611c4157610140850151604051611c2f918391602001613591565b60405160208183030381529060405290505b84608001518015611c585750600085610160015151115b15611c8657610160850151604051611c749183916020016135e6565b60405160208183030381529060405290505b84602001518015611c9d5750600085610100015151115b15611ccb57610100850151604051611cb991839160200161363a565b60405160208183030381529060405290505b84518015611ce5575060c08501516001600160a01b031615155b15611d265780611d038660c001516001600160a01b03166014612436565b604051602001611d1492919061368b565b60405160208183030381529060405290505b6000611d628660e001518584611d3b876125d9565b604051602001611d4e94939291906136c5565b6040516020818303038152906040526125d9565b905080604051602001611d759190613810565b60405160208183030381529060405294505050505092915050565b61104c82826040518060200160405280600081525061272d565b60006001600160e01b031982166380ac58cd60e01b1480611ddb57506001600160e01b03198216635b5e139f60e01b145b8061044757506301ffc9a760e01b6001600160e01b0319831614610447565b61068a838383612760565b6000611e1082610e60565b9050611e1e81600084611dfa565b611e29600083611721565b6001600160a01b0381166000908152600360205260408120805460019290611e529084906134b4565b909155505060008281526002602052604080822080546001600160a01b0319169055518391906001600160a01b038416907fddf252ad1be2c89b69c2b068fc378daa952ba7f163c4a11628f55a4df523b3ef908390a45050565b60006001600160a01b0384163b15611f9f57604051630a85bd0160e11b81526001600160a01b0385169063150b7a0290611ef0903390899088908890600401613855565b6020604051808303816000875af1925050508015611f2b575060408051601f3d908101601f19168201909252611f2891810190613888565b60015b611f85573d808015611f59576040519150601f19603f3d011682016040523d82523d6000602084013e611f5e565b606091505b508051611f7d5760405162461bcd60e51b8152600401610554906134e3565b805181602001fd5b6001600160e01b031916630a85bd0160e11b14905061187e565b506001949350505050565b606081611fce5750506040805180820190915260018152600360fc1b602082015290565b8160005b8115611ff85780611fe2816138a5565b9150611ff19050600a836138d6565b9150611fd2565b60008167ffffffffffffffff81111561201357612013612da7565b6040519080825280601f01601f19166020018201604052801561203d576020820181803683370190505b5090505b841561187e576120526001836134b4565b915061205f600a866138ea565b61206a9060306134cb565b60f81b81838151811061207f5761207f613488565b60200101906001600160f81b031916908160001a9053506120a1600a866138d6565b9450612041565b606060405180610480016040528061045081526020016146a3610450913960e0830151604080518082018252600681526564657664616f60d01b6020808301919091528251808401845260078152661e17ba32bc3a1f60c91b81830152925161211495949391016138fe565b60408051601f1981840301815282820190915260048252633535373760e01b602083015260a0840151909250156121a85781604051806101800160405280610156815260200161450d610156913982604051806040016040528060078152602001661e17ba32bc3a1f60c91b8152506040516020016121969493929190613965565b60405160208183030381529060405291505b82604001511561221a5781604051806101c001604052806101908152602001614c236101909139846101200151604051806040016040528060078152602001661e17ba32bc3a1f60c91b8152506040516020016122089493929190613965565b60405160208183030381529060405291505b82606001511561228c57816040518061072001604052806106f98152602001613c836106f99139846101400151604051806040016040528060078152602001661e17ba32bc3a1f60c91b81525060405160200161227a9493929190613965565b60405160208183030381529060405291505b8260800151156122fe57816040518061024001604052806102088152602001613a386102089139846101600151604051806040016040528060078152602001661e17ba32bc3a1f60c91b8152506040516020016122ec9493929190613965565b60405160208183030381529060405291505b8260200151156123695781604051806101c00160405280610191815260200161437c6101919139846101000151604051806080016040528060438152602001613c40604391396040516020016123579493929190613965565b60405160208183030381529060405291505b8251156123ea57816040518061016001604052806101308152602001614af361013091396123a58560c001516001600160a01b03166014612436565b604051806040016040528060078152602001661e17ba32bc3a1f60c91b8152506040516020016123d89493929190613965565b60405160208183030381529060405291505b816040518060400160405280600a8152602001691e17b39f1e17b9bb339f60b11b81525060405160200161241f9291906139bc565b604051602081830303815290604052915050919050565b606060006124458360026139eb565b6124509060026134cb565b67ffffffffffffffff81111561246857612468612da7565b6040519080825280601f01601f191660200182016040528015612492576020820181803683370190505b509050600360fc1b816000815181106124ad576124ad613488565b60200101906001600160f81b031916908160001a905350600f60fb1b816001815181106124dc576124dc613488565b60200101906001600160f81b031916908160001a90535060006125008460026139eb565b61250b9060016134cb565b90505b6001811115612583576f181899199a1a9b1b9c1cb0b131b232b360811b85600f166010811061253f5761253f613488565b1a60f81b82828151811061255557612555613488565b60200101906001600160f81b031916908160001a90535060049490941c9361257c81613a0a565b905061250e565b5083156125d25760405162461bcd60e51b815260206004820181905260248201527f537472696e67733a20686578206c656e67746820696e73756666696369656e746044820152606401610554565b9392505050565b60608151600014156125f957505060408051602081019091526000815290565b6000604051806060016040528060408152602001614663604091399050600060038451600261262891906134cb565b61263291906138d6565b61263d9060046139eb565b67ffffffffffffffff81111561265557612655612da7565b6040519080825280601f01601f19166020018201604052801561267f576020820181803683370190505b509050600182016020820185865187015b808210156126eb576003820191508151603f8160121c168501518453600184019350603f81600c1c168501518453600184019350603f8160061c168501518453600184019350603f8116850151845350600183019250612690565b5050600386510660018114612707576002811461271a57612722565b603d6001830353603d6002830353612722565b603d60018303535b509195945050505050565b6127378383612818565b6127446000848484611eac565b61068a5760405162461bcd60e51b8152600401610554906134e3565b6001600160a01b0383166127bb576127b681600880546000838152600960205260408120829055600182018355919091527ff3f7a9fe364faab93b216da50a3214154f22a0a2b415b23a84c8169e8b636ee30155565b6127de565b816001600160a01b0316836001600160a01b0316146127de576127de8382612966565b6001600160a01b0382166127f55761068a81612a03565b826001600160a01b0316826001600160a01b03161461068a5761068a8282612ab2565b6001600160a01b03821661286e5760405162461bcd60e51b815260206004820181905260248201527f4552433732313a206d696e7420746f20746865207a65726f20616464726573736044820152606401610554565b6000818152600260205260409020546001600160a01b0316156128d35760405162461bcd60e51b815260206004820152601c60248201527f4552433732313a20746f6b656e20616c7265616479206d696e746564000000006044820152606401610554565b6128df60008383611dfa565b6001600160a01b03821660009081526003602052604081208054600192906129089084906134cb565b909155505060008181526002602052604080822080546001600160a01b0319166001600160a01b03861690811790915590518392907fddf252ad1be2c89b69c2b068fc378daa952ba7f163c4a11628f55a4df523b3ef908290a45050565b6000600161297384610ed7565b61297d91906134b4565b6000838152600760205260409020549091508082146129d0576001600160a01b03841660009081526006602090815260408083208584528252808320548484528184208190558352600790915290208190555b5060009182526007602090815260408084208490556001600160a01b039094168352600681528383209183525290812055565b600854600090612a15906001906134b4565b60008381526009602052604081205460088054939450909284908110612a3d57612a3d613488565b906000526020600020015490508060088381548110612a5e57612a5e613488565b6000918252602080832090910192909255828152600990915260408082208490558582528120556008805480612a9657612a96613a21565b6001900381819060005260206000200160009055905550505050565b6000612abd83610ed7565b6001600160a01b039093166000908152600660209081526040808320868452825280832085905593825260079052919091209190915550565b828054612b0290613402565b90600052602060002090601f016020900481019282612b245760008555612b6a565b82601f10612b3d57805160ff1916838001178555612b6a565b82800160010185558215612b6a579182015b82811115612b6a578251825591602001919060010190612b4f565b50612b76929150612c9a565b5090565b60405180610180016040528060001515815260200160001515815260200160001515815260200160001515815260200160001515815260200160001515815260200160006001600160a01b0316815260200160608152602001606081526020016060815260200160608152602001606081525090565b828054612bfc90613402565b90600052602060002090601f016020900481019282612c1e5760008555612b6a565b82601f10612c375782800160ff19823516178555612b6a565b82800160010185558215612b6a579182015b82811115612b6a578235825591602001919060010190612c49565b508054612c7090613402565b6000825580601f10612c80575050565b601f016020900490600052602060002090810190610a4591905b5b80821115612b765760008155600101612c9b565b6001600160e01b031981168114610a4557600080fd5b600060208284031215612cd757600080fd5b81356125d281612caf565b60005b83811015612cfd578181015183820152602001612ce5565b838111156108385750506000910152565b60008151808452612d26816020860160208601612ce2565b601f01601f19169290920160200192915050565b6020815260006125d26020830184612d0e565b600060208284031215612d5f57600080fd5b5035919050565b80356001600160a01b03811681146108e657600080fd5b60008060408385031215612d9057600080fd5b612d9983612d66565b946020939093013593505050565b634e487b7160e01b600052604160045260246000fd5b604051610180810167ffffffffffffffff81118282101715612de157612de1612da7565b60405290565b600067ffffffffffffffff80841115612e0257612e02612da7565b604051601f8501601f19908116603f01168101908282118183101715612e2a57612e2a612da7565b81604052809350858152868686011115612e4357600080fd5b858560208301376000602087830101525050509392505050565b600082601f830112612e6e57600080fd5b6125d283833560208501612de7565b803580151581146108e657600080fd5b60006101808284031215612ea057600080fd5b612ea8612dbd565b9050612eb382612e7d565b8152612ec160208301612e7d565b6020820152612ed260408301612e7d565b6040820152612ee360608301612e7d565b6060820152612ef460808301612e7d565b6080820152612f0560a08301612e7d565b60a0820152612f1660c08301612d66565b60c082015260e082013567ffffffffffffffff80821115612f3657600080fd5b612f4285838601612e5d565b60e084015261010091508184013581811115612f5d57600080fd5b612f6986828701612e5d565b838501525061012091508184013581811115612f8457600080fd5b612f9086828701612e5d565b838501525061014091508184013581811115612fab57600080fd5b612fb786828701612e5d565b838501525061016091508184013581811115612fd257600080fd5b612fde86828701612e5d565b8385015250505092915050565b60008060408385031215612ffe57600080fd5b823567ffffffffffffffff8082111561301657600080fd5b61302286838701612e5d565b9350602085013591508082111561303857600080fd5b5061304585828601612e8d565b9150509250929050565b60008060006060848603121561306457600080fd5b833567ffffffffffffffff81111561307b57600080fd5b61308786828701612e5d565b93505061309660208501612e7d565b91506130a460408501612d66565b90509250925092565b6000602082840312156130bf57600080fd5b813567ffffffffffffffff8111156130d657600080fd5b61187e84828501612e8d565b6000806000606084860312156130f757600080fd5b61310084612d66565b925061310e60208501612d66565b9150604084013590509250925092565b60006020828403121561313057600080fd5b813567ffffffffffffffff81111561314757600080fd5b61187e84828501612e5d565b6020815261316660208201835115159052565b6000602083015161317b604084018215159052565b5060408301518015156060840152506060830151801515608084015250608083015180151560a08401525060a083015180151560c08401525060c08301516001600160a01b03811660e08401525060e083015161018061010081818601526131e76101a0860184612d0e565b9250808601519050601f196101208187860301818801526132088584612d0e565b9450808801519250506101408187860301818801526132278584612d0e565b9450808801519250506101608187860301818801526132468584612d0e565b9088015187820390920184880152935090506132628382612d0e565b9695505050505050565b60006020828403121561327e57600080fd5b6125d282612d66565b6000806000806060858703121561329d57600080fd5b843567ffffffffffffffff808211156132b557600080fd5b6132c188838901612e5d565b95506132cf60208801612e7d565b945060408701359150808211156132e557600080fd5b818701915087601f8301126132f957600080fd5b81358181111561330857600080fd5b88602082850101111561331a57600080fd5b95989497505060200194505050565b6000806040838503121561333c57600080fd5b61334583612d66565b915061335360208401612e7d565b90509250929050565b6000806000806080858703121561337257600080fd5b61337b85612d66565b935061338960208601612d66565b925060408501359150606085013567ffffffffffffffff8111156133ac57600080fd5b8501601f810187136133bd57600080fd5b6133cc87823560208401612de7565b91505092959194509250565b600080604083850312156133eb57600080fd5b6133f483612d66565b915061335360208401612d66565b600181811c9082168061341657607f821691505b6020821081141561159257634e487b7160e01b600052602260045260246000fd5b60208082526031908201527f4552433732313a207472616e736665722063616c6c6572206973206e6f74206f6040820152701ddb995c881b9bdc88185c1c1c9bdd9959607a1b606082015260800190565b634e487b7160e01b600052603260045260246000fd5b634e487b7160e01b600052601160045260246000fd5b6000828210156134c6576134c661349e565b500390565b600082198211156134de576134de61349e565b500190565b60208082526032908201527f4552433732313a207472616e7366657220746f206e6f6e20455243373231526560408201527131b2b4bb32b91034b6b83632b6b2b73a32b960711b606082015260800190565b60008151613547818560208601612ce2565b9290920192915050565b6a113a3bb4ba3a32b9111d1160a91b8152815160009061357881600b850160208701612ce2565b61088b60f21b600b939091019283015250600d01919050565b600083516135a3818460208801612ce2565b6a113234b9b1b7b932111d1160a91b90830190815283516135cb81600b840160208801612ce2565b61088b60f21b600b9290910191820152600d01949350505050565b600083516135f8818460208801612ce2565b691133b4ba343ab1111d1160b11b908301908152835161361f81600a840160208801612ce2565b61088b60f21b600a9290910191820152600c01949350505050565b6000835161364c818460208801612ce2565b66113ab936111d1160c91b9083019081528351613670816007840160208801612ce2565b61088b60f21b60079290910191820152600901949350505050565b6000835161369d818460208801612ce2565b6a1130b2323932b9b9911d1160a91b90830190815283516135cb81600b840160208801612ce2565b7f7b226e616d65223a2244657644616f446f6d61696e73222c226465736372697081527f74696f6e223a2247657420796f7572206f776e202e64657664616f20646f6d6160208201527f696e206f6e2074686520506f6c79676f6e204e6574776f726b21222c22646f6d60408201526530b4b7111d1160d11b606082015260008551613758816066850160208a01612ce2565b6c1116113a37b5b2b724b2111d1160991b6066918401918201528551613785816073840160208a01612ce2565b680b99195d99185bc88b60ba1b6073929091019182015284516137af81607c840160208901612ce2565b7f22696d616765223a2022646174613a696d6167652f7376672b786d6c3b626173607c929091019182015263194d8d0b60e21b609c8201526138056137f760a0830186613535565b61227d60f01b815260020190565b979650505050505050565b7f646174613a6170706c69636174696f6e2f6a736f6e3b6261736536342c00000081526000825161384881601d850160208701612ce2565b91909101601d0192915050565b6001600160a01b038581168252841660208201526040810183905260806060820181905260009061326290830184612d0e565b60006020828403121561389a57600080fd5b81516125d281612caf565b60006000198214156138b9576138b961349e565b5060010190565b634e487b7160e01b600052601260045260246000fd5b6000826138e5576138e56138c0565b500490565b6000826138f9576138f96138c0565b500690565b60008551613910818460208a01612ce2565b855190830190613924818360208a01612ce2565b601760f91b91019081528451613941816001840160208901612ce2565b8451910190613957816001840160208801612ce2565b016001019695505050505050565b60008551613977818460208a01612ce2565b85519083019061398b818360208a01612ce2565b855191019061399e818360208901612ce2565b84519101906139b1818360208801612ce2565b019695505050505050565b600083516139ce818460208801612ce2565b8351908301906139e2818360208801612ce2565b01949350505050565b6000816000190483118215151615613a0557613a0561349e565b500290565b600081613a1957613a1961349e565b506000190190565b634e487b7160e01b600052603160045260246000fdfe3c73766720783d2237302220793d223239382220786d6c6e733d22687474703a2f2f7777772e77332e6f72672f323030302f737667222077696474683d22323422206865696768743d223234222076696577426f783d22302030203234203234222066696c6c3d226e6f6e6522207374726f6b653d222366666622207374726f6b652d77696474683d223122207374726f6b652d6c696e656361703d22726f756e6422207374726f6b652d6c696e656a6f696e3d22726f756e64223e3c7061746820643d224d39203139632d3520312e352d352d322e352d372d336d31342036762d332e383761332e333720332e33372030203020302d2e39342d322e363163332e31342d2e333520362e34342d312e353420362e34342d3741352e343420352e343420302030203020323020342e373720352e303720352e30372030203020302031392e393120315331382e37332e363520313620322e34386131332e33382031332e33382030203020302d37203043362e32372e363520352e3039203120352e3039203141352e303720352e3037203020302030203520342e373761352e343420352e34342030203020302d312e3520332e3738633020352e343220332e3320362e363120362e3434203741332e333720332e333720302030203020392031382e313356323222202f3e3c2f7376673e3c7465787420783d223130302220793d22333230223e22207461726765743d225f626c616e6b223e3c7465787420783d223130302220793d22333730223e506572736f6e616c20576562736974653c2f746578743e3c2f613e3c73766720783d2236392220793d223234382220786d6c6e733d22687474703a2f2f7777772e77332e6f72672f323030302f737667222077696474683d22323622206865696768743d223234222076696577426f783d222d31302030203835203535222066696c6c3d226e6f6e6522207374726f6b653d222366666622207374726f6b652d77696474683d223322207374726f6b652d6c696e656361703d22726f756e6422207374726f6b652d6c696e656a6f696e3d22726f756e64223e3c7061746820643d224d36302e3130343520342e383937384335352e3537393220322e383231342035302e3732363520312e323931362034352e3635323720302e34313534324334352e3536303320302e33393835312034352e34363820302e3434303736392034352e3432303420302e3532353238394334342e3739363320312e363335332034342e31303520332e303833342034332e3632303920342e323231364333382e3136333720332e343034362033322e3733343520332e343034362032372e3338393220342e323231364332362e39303520332e303538312032362e3138383620312e363335332032352e3536313720302e3532353238394332352e3531343120302e3434333538392032352e3432313820302e34303133332032352e3332393420302e34313534324332302e3235383420312e323838382031352e3430353720322e383138362031302e3837373620342e383937384331302e3833383420342e393134372031302e3830343820342e393432392031302e3738323520342e3937393543312e35373739352031382e37333039202d302e3934333536312033322e3134343320302e3239333430382034352e3339313443302e3239393030352034352e3435363220302e3333353338362034352e3531383220302e3338353736312034352e3535373643362e34353836362035302e303137342031322e333431332035322e373234392031382e313134372035342e353139354331382e323037312035342e353437372031382e3330352035342e353133392031382e333633382035342e343337384331392e373239352035322e353732382032302e393436392035302e363036332032312e393930372034382e353338334332322e303532332034382e343137322032312e393933352034382e323733352032312e383637362034382e323235364331392e393336362034372e343933312031382e303937392034362e362031362e333239322034352e353835384331362e313839332034352e353034312031362e313738312034352e3330342031362e333036382034352e323038324331362e3637392034342e393239332031372e303531332034342e363339312031372e343036372034342e333436314331372e3437312034342e323932362031372e353630362034342e323831332031372e363336322034342e333135314332392e323535382034392e363230322034312e383335342034392e363230322035332e333137392034342e333135314335332e333933352034342e323738352035332e343833312034342e323839382035332e353530322034342e333433334335332e393035372034342e363336332035342e323737392034342e393239332035342e363532392034352e323038324335342e373831362034352e3330342035342e373733322034352e353034312035342e363333332034352e353835384335322e383634362034362e363139372035312e303235392034372e343933312034392e303932312034382e323232384334382e393636322034382e323730372034382e393130322034382e343137322034382e393731382034382e353338334335302e3033382035302e363033342035312e323535342035322e353639392035322e353935392035342e3433354335322e363531392035342e353133392035322e373532362035342e353437372035322e3834352035342e353139354335382e363436342035322e373234392036342e3532392035302e303137342037302e363031392034352e353537364337302e363535312034352e353138322037302e363838372034352e3435392037302e363934332034352e333934324337322e313734372033302e303739312036382e323134372031362e373735372036302e3139363820342e393832334336302e3137373220342e393432392036302e3134333720342e393134372036302e3130343520342e383937385a22202f3e3c636972636c652063783d223234222063793d2233302220723d2237222066696c6c3d222366666622207374726f6b652d77696474683d223022202f3e3c636972636c652063783d2234372e35222063793d2233302220723d2237222066696c6c3d222366666622207374726f6b652d77696474683d223022202f3e3c2f7376673e3c7465787420783d223130302220793d22323730223e3c73766720783d2237302220793d223334382220786d6c6e733d22687474703a2f2f7777772e77332e6f72672f323030302f737667222077696474683d22323422206865696768743d223234222076696577426f783d22302030203234203234222066696c6c3d226e6f6e6522207374726f6b653d222366666622207374726f6b652d77696474683d223122207374726f6b652d6c696e656361703d22726f756e6422207374726f6b652d6c696e656a6f696e3d22726f756e64223e3c636972636c652063783d223132222063793d2231322220723d223130223e3c2f636972636c653e3c6c696e652078313d2232222079313d223132222078323d223232222079323d223132223e3c2f6c696e653e3c7061746820643d224d313220326131352e332031352e3320302030203120342031302031352e332031352e332030203020312d342031302031352e332031352e332030203020312d342d31302031352e332031352e3320302030203120342d31307a223e3c2f706174683e3c2f7376673e3c6120786c696e6b3a687265663d223c73766720783d2236382220793d223134352220786d6c6e733d22687474703a2f2f7777772e77332e6f72672f323030302f737667222077696474683d22323822206865696768743d223238222076696577426f783d22302030203234203234222066696c6c3d226e6f6e6522207374726f6b653d222366666622207374726f6b652d77696474683d222e3722207374726f6b652d6c696e656361703d22726f756e6422207374726f6b652d6c696e656a6f696e3d22726f756e64223e3c636972636c652063783d223133222063793d2231322220723d22313022202f3e3c7465787420666f6e742d73697a653d22382220783d2231332220793d2231352220746578742d616e63686f723d226d6964646c6522207374726f6b653d226e6f6e65222066696c6c3d2223666666223e445f443c2f746578743e3c2f7376673e3c7465787420783d223130302220793d22313730223e234142434445464748494a4b4c4d4e4f505152535455565758595a6162636465666768696a6b6c6d6e6f707172737475767778797a303132333435363738392b2f3c73766720786d6c6e733d22687474703a2f2f7777772e77332e6f72672f323030302f7376672220786d6c6e733a786c696e6b3d22687474703a2f2f7777772e77332e6f72672f313939392f786c696e6b222077696474683d2235303022206865696768743d22353030222066696c6c3d226e6f6e65223e3c726563742066696c6c3d2275726c28234629222077696474683d2235303022206865696768743d22353030222072783d223235223e3c2f726563743e3c646566733e3c6c696e6561724772616469656e742069643d2246222078313d2231222079313d2230222078323d2230222079323d2231223e3c73746f70206f66667365743d223022207374796c653d2273746f702d636f6c6f723a23303030222f3e3c73746f70206f66667365743d223122207374796c653d2273746f702d636f6c6f723a2334343422202f3e3c2f6c696e6561724772616469656e743e3c7374796c6520747970653d22746578742f637373223e2f2a203c215b43444154415b202a2f617b637572736f723a20706f696e7465723b7d6120746578747b66696c6c3a236666663b746578742d6465636f726174696f6e3a6e6f6e653b7d613a686f7665722c613a6163746976657b6f75746c696e653a646f747465642031707820236666663b626f726465722d7261646975733a3570783b7d2f2a205d5d3e202a2f3c2f7374796c653e3c2f646566733e3c646566733e3c66696c7465722069643d2266322220783d22302220793d2230222077696474683d223230302522206865696768743d2232303025223e3c6665436f6c6f724d617472697820726573756c743d226d61747269784f75742220696e3d226f66664f75742220747970653d226d6174726978222076616c7565733d22302e382030203020302030203020302e382030203020302030203020302e3820302030203020302030202e34203022202f3e3c6665476175737369616e426c757220726573756c743d22626c75724f75742220696e3d226f66664f75742220737464446576696174696f6e3d22312e35222f3e3c6665426c656e6420696e3d22536f75726365477261706869632220696e323d22626c75724f757422206d6f64653d226e6f726d616c22202f3e3c2f66696c7465723e3c2f646566733e3c7265637420783d2231302220793d223130222066696c6c3d226e6f6e65222077696474683d2234383022206865696768743d22343830222072783d22323022207374726f6b653d222366666622207374726f6b652d77696474683d2232223e3c2f726563743e3c672066696c6c3d22236666662220666f6e742d73697a653d2233302220666f6e742d7765696768743d223130302220666f6e742d66616d696c793d2273616e732d7365726966222066696c7465723d2275726c2823663229223e3c7465787420783d223434302220793d2238302220746578742d616e63686f723d22656e642220666f6e742d73697a653d2233362220666f6e742d7765696768743d22343030223e3c73766720783d2237302220793d223339382220786d6c6e733d22687474703a2f2f7777772e77332e6f72672f323030302f737667222077696474683d22323422206865696768743d223234222076696577426f783d22302030203234203234222066696c6c3d226e6f6e6522207374726f6b653d222366666622207374726f6b652d77696474683d223122207374726f6b652d6c696e656361703d22726f756e6422207374726f6b652d6c696e656a6f696e3d22726f756e64223e3c7061746820643d224d313220314c31382031324c31322031354c362031327a22202f3e3c7061746820643d224d31322031384c31382031354c31322032334c362031357a22202f3e3c2f7376673e3c7465787420783d223130302220793d223431362220666f6e742d73697a653d223136223e3c73766720783d2237302220793d223139382220786d6c6e733d22687474703a2f2f7777772e77332e6f72672f323030302f737667222077696474683d22323422206865696768743d223234222076696577426f783d22302030203234203234222066696c6c3d226e6f6e6522207374726f6b653d222366666622207374726f6b652d77696474683d223122207374726f6b652d6c696e656361703d22726f756e6422207374726f6b652d6c696e656a6f696e3d22726f756e64223e3c7061746820643d224d323320336131302e392031302e392030203020312d332e313420312e353320342e343820342e34382030203020302d372e3836203376314131302e36362031302e363620302030203120332034732d34203920352031336131312e36342031312e36342030203020312d3720326339203520323020302032302d31312e3561342e3520342e352030203020302d2e30382d2e383341372e373220372e373220302030203020323320337a22202f3e3c2f7376673e3c7465787420783d223130302220793d22323230223ea2646970667358221220ef080a6e15e5285a93a271d5a551cfb4228e78863035e828fbcb949fabe26ba064736f6c634300080a0033",
  "linkReferences": {},
  "deployedLinkReferences": {}
}